:100000000C9495050C94C6050C94C6050C94C60575
:100010000C94C6050C94C6050C94C6050C94C60534
:100020000C94C6050C94C6050C94C6050C94C60524
:100030000C94C6050C94C6050C94C6050C94C60514
:100040000C94C6050C94C6050C94C6050C94C60504
:100050000C94C6050C94C6050C94C6050C942B167E
:100060000C94C6050C9401160C94D7150C94C60577
:100070000C94C6050C94C6050C94C6050C94C605D4
:100080000C94C6050C94C6050C94C6050C94C605C4
:100090000C94AD150C9483150C94C6050C94751630
:1000A0000C94C6050C94C6050C94C6050C94C605A4
:1000B0000C94C6050C94C6050C94C6050C94C60594
:1000C0000C94C6050C94C6050C94C6050C945915E1
:1000D0000C942F150C94C6050C9405150C94DB1488
:1000E0000C94C605084AD73B3BCE016E84BCBFFDCD
:1000F000C12F3D6C74319ABD56833DDA3D00C77FF8
:1001000011BED9E4BB4C3E916BAAAABE0000008090
:100110003F07634236B79BD8A71A39685618AEBA5C
:10012000AB558C1D3CB7CC5763BD6DEDFD753EF6F0
:10013000177231BF000000803F05A84CCDB2D44EED
:10014000B93836A9020C50B9918688083CA6AAAAEB
:100150002ABE000000803F08000000BE9224491221
:100160003EABAAAA2ABECDCCCC4C3E00000080BE3D
:10017000ABAAAAAA3E00000000BF000000803F001A
:1001800000000000084178D3BB4387D1133D190E0E
:100190003CC3BD4282AD2B3E68EC8276BED98FE176
:1001A000A93E4C80EFFFBE01C4FF7F3F000000006E
:1001B00000000C9495070C9446060C9468060C9469
:1001C000F1050C94C50B0C94EF0B0C9469080C947E
:1001D000E7080C9482080C9470070C9478080C942F
:1001E00076070C941C0C0C940D070C94D3080C94FB
:1001F000A6080C94F0050C94DD080C9464080C948B
:10020000B1070C94FB080C94A3070C949C080C9465
:1002100082070C94B5070C94B0070C94F1080C9469
:100220005A060C9494080C94BA080C9499070C94F0
:100230008C080C948B070C9485070C94A7070C94DE
:10024000E80B0C947E070C94BE060C946E080C947C
:100250009D070C9499170C94D50B0C94EF050C94F6
:100260004B0C0C9437060C94AB070C947A070C9447
:10027000C9080C94C60B0C94B0080C948F070000AE
:100280002100240027002A002D0030003300010146
:100290000000040107010A010000220025002800D7
:1002A0002B002E003100340002010000050108017E
:1002B0000B01000020002300260029002C002F0045
:1002C00032000001000003010601090105050505D2
:1002D000070508080808020202020A0A08080404BE
:1002E00004040101010101010101030303030303EC
:1002F0000303040707070C0C0C0C0C0C0C0C02027B
:10030000020206060606060606060B0B0B0B0B0B77
:100310000B0B010210202008081020401020408004
:1003200002010201080402010102040810204080B9
:100330008040201008040201800402018040201047
:100340000804020108040201010204081020408090
:10035000010204081020408000000A0B02090C0D65
:100360000E08070304010000000000000000000068
:10037000000000000000000000000000000000007D
:10038000000000001211100000000000000000003A
:100390000000000000000000000000000000FB0062
:1003A000003E000B00360001000200030000006563
:1003B0000054FFEF0000FA80000B128200010002DF
:1003C0000000000000000000000000000000002805
:1003D0000000FFFF4581FFFFFA72000000000000EF
:1003E00003E80000000100017FFFFFFE8001001B09
:1003F00000000000000000000000000000000040BD
:1004000000004000000002CB47A2200000002000B6
:10041000000000000000400000006000000041FFFC
:10042000000000000B2A0000165500002182FD8705
:100430002650FD800000001F000000058000000025
:100440000000000100000002000000030000400066
:1004500000000000046F0002653200005EC0400032
:100460000000000000000000000000000000FB8C05
:100470006F5DFD5D08D9007C733B006C12CC3200CF
:10048000139D3200D0D632000800400001F4FFE690
:100490008079020000000000D0D600002710FB0089
:1004A000000040000000000000000000000000000C
:1004B0000001000000000000010001000000000039
:1004C000FA36FFBC308E0005FBF0FFD95BC8FFD0C9
:1004D0009ABE000010A9FFF41EB200CEBBF70000C8
:1004E000000100000004000200020200000CFFC234
:1004F00080000001800000CF80004000000000006C
:1005000000000000000000000600000000140000D1
:1005100000000000000000000000000000000000DB
:10052000000000000000000000000000000009239F
:10053000A1350000000000000000000000000000E5
:100540000000033F68B6793528BCC67ED16C8000B8
:10055000FFFF400000000000B26A00000000000041
:1005600000000000000000003FF00000003000002C
:10057000000000000000000000000000000000007B
:10058000000000000000000000000000400000002B
:10059000254D002F706D000005AE000C02D000004C
:1005A000000000650054FFEF0000000000000000A4
:1005B00001000044000100058BC1000001000000A3
:1005C00000000065000000540000FFEF0000000084
:1005D000000000000000000000000000000000001B
:1005E000000000000000000000000000000000000B
:1005F00000000000000000000000000000000000FB
:1006000000010000000200000000000000000000E7
:1006100000000000000000000000000000000000DA
:100620000000000000000000000000000000001BAF
:1006300000000000000000000000000000000000BA
:1006400000000000000000000000000000000000AA
:100650000000000000000000000000000000001B7F
:10066000000000000000000000000000000000008A
:10067000000000000000000000000000000000007A
:10068000000000000000000000000000000000006A
:100690000000000000000000000000000000D8DCA6
:1006A000BAA2F1DEB2B8B4A88191F74A907F916AFC
:1006B000F3F9DBA8F9B0BAA080F2CE81F3C2F1C1A0
:1006C000F2C3F3CCA2B280F1C6D880BAA7DFDFDFD5
:1006D000F2A7C3CBC5B6F087A2942448703C9540DE
:1006E0006834589B78A2F183922D557DD8B1B4B867
:1006F000A1D09180F270F370F27C80A8F101B098E3
:1007000087D943D886C988BAA1F20EB89780F1A9D3
:10071000DFDFDFAADFDFDFF2AA4CCD6CA90CC92C2A
:1007200097979797F1A989264666B0B4BA80ACDE50
:10073000F2CAF1B28C02A9B69800890E161EB8A9A9
:10074000B4992C547CB08AA896365676F1B9AFB4D9
:10075000B083C0B8A89711B18F98B9AFF0240844FE
:10076000106418F1A329557DAF83B593AFF000282D
:1007700050F1A3869F61A6DADEDFD9FAA38696DB65
:1007800031A6D9F8DFBAA68FC2C5C7B28CC1B8A24C
:10079000DFDFDFA3DFDFDFD8D8F1B8A8B286B498F7
:1007A0000D355DB8AA98B0872D353DB2B6BAAF8C7D
:1007B00096198F9FA70E161EB49AB8AA872C547C40
:1007C000B9A3DEDFDFA3B180F2C4CDC9F1B8A9B40B
:1007D00099830D355D89B9A32D557DB593A30E166B
:1007E0001EA92C547CB8B4B0F19783A81184A50934
:1007F00098A383F0DA240844106418D8F1A5295589
:100800007DA58595021A2E3A565A4048F9F3A3D988
:10081000F8F098832408441064189782A8F111F026
:1008200098A2240844106418DAF3DED883A5940152
:10083000D9A302F1A2C3C5C7D8F18492A24DDA2A86
:10084000D84869D92AD86855DA32D85071D932D8FF
:10085000705DDA3AD85879D93AD87893A34DDA2A24
:10086000D84869D92AD86855DA32D85071D932D8DF
:10087000705DDA3AD85879D93AD878A88A9AF028A7
:1008800050789EF38818F19F1D98A8D908D8C89F62
:10089000129EF315A8DA1210D8F1AFC8978734B5B5
:1008A000B994A421F3D922D8F22DF3D92AD8F2355C
:1008B000F3D932D881A4606061D961D86C6869D9F4
:1008C00069D8747071D971D8B1A384193D5DA383BF
:1008D0001A3E5E931030811011B8B0AF8F94F2DAE7
:1008E0003ED8B49AA88729DAF8D8879A35DAF8D8A2
:1008F000879A3DDAF8D8B1B9A49885022E56A58119
:10090000000C14A397B08AF12DD928D84DD948D816
:100910006DD968D8B1840DDA0ED8A32983DA2C0EEC
:10092000D8A3844983DA2C4C0ED8B8B0A88A9AF59B
:1009300020AADADFD8A840AAD0DADED8A860AADADE
:10094000D0DFD8F19786A8319B069907AB97288806
:100950009BF00C201440B8B0B4A88C9CF004285133
:10096000791D301438B282ABD0982C505078789BD7
:10097000F11AB0F08A9CA82951798B2951798A24DF
:1009800070598B2058718A4469388B3940688A6461
:1009900048318B304960A588200971584468113965
:1009A00064493019F1AC002C547CF08CA804285018
:1009B00078F1889726A85998AC8C02264666F0896B
:1009C0009CA8295179247059446938644831A98810
:1009D00009205970AB11384069A8193148608CA8BA
:1009E0003C415C207C00F187981986A86E767EA930
:1009F00099882D557D9EB9A38A228A6E8A568A5E71
:100A00009FB183062646660E2E4E6E9DB8AD002C15
:100A1000547CF2B18CB499B9A32D557D8191AC3839
:100A2000AD3AB58391AC2DD928D84DD948D86DD9D8
:100A300068D88C9DAE29D904AED851D904AED879E6
:100A4000D904D881F39DAD008DAE1981ADD901D8FF
:100A5000F2AEDA26D88E912983A7D9ADADADADF32C
:100A60002AD8D8F1B0AC89913E5E76F3AC2E2EF147
:100A7000B18C5A9CAC2C2828289CAC3018A89881A2
:100A800028343C9724A728343C9C24F2B089AC91AC
:100A90002C4C6C8A9B2DD9D8D851D9D8D879D9D893
:100AA000D8F19E88A331DAD8D8912DD928D84DD93C
:100AB00048D86DD968D8B18393353D8025DAD8D828
:100AC0008569DAD8D8B49381A328343CF3AB8BF88A
:100AD000A391B609B4D9ABDEFAB0879CB9A3DDF116
:100AE000202830389AF12830389DF1A3A3A3A3F22F
:100AF000A3B49080F2A3A3A3A3A3A3A3A3A3A3B28D
:100B0000A3A3A3A3A3A3B087B599F128303898F184
:100B1000A3A3A3A397A3A3A3A3F39BA330DCB9A789
:100B2000F1262626FED8FF00991711241FBECFEF0D
:100B3000D1E2DEBFCDBF00E00CBF12E0A0E0B2E02A
:100B4000EEE2FFE400E00BBF02C007900D92AC3D67
:100B5000B107D9F726E0ACEDB2E001C01D92AE3E80
:100B6000B207E1F715E0C5E9D5E000E006C021973E
:100B70000109802FFE010E944726C439D10780E079
:100B80000807A9F70E9476180C9495270C9400008A
:100B9000FC01A089B18982E08C93A485B5851C9263
:100BA000A685B78580E18C93108EA489B58986E0EF
:100BB0008C93A289B3898C9180618C93A289B3892B
:100BC0008C9188608C93A289B3898C9180688C9376
:100BD0000288F389E02D80818F7D808308950895B8
:100BE0000895AF92BF92CF92DF92EF92FF920F9350
:100BF0001F93CF93DF936C017B018B01040F151FB3
:100C0000EB015E01AE18BF08C017D10759F069911A
:100C1000D601ED91FC910190F081E02DC60119956E
:100C2000892B79F7C501DF91CF911F910F91FF902B
:100C3000EF90DF90CF90BF90AF900895FC01A08916
:100C4000B1898C91A689B78982FD0FC09C91818D55
:100C50008F5F8F73228D821749F0A18DAE0FBF2F4A
:100C6000B11D5D969C93818F08958C910895FC0130
:100C7000538D448D252F30E0842F90E0821B930B01
:100C8000541710F0CF96089501970895FC01918DA7
:100C9000828D981761F0A28DAE0FBF2FB11D5D96AA
:100CA0008C91928D9F5F9F73928F90E008958FEF4C
:100CB0009FEF0895FC01918D828D981731F0828D00
:100CC000E80FF11D858D90E008958FEF9FEF089557
:100CD000FC01918D228D892F90E0805C9F4F821BBB
:100CE00091098F739927089581E294E00E94680624
:100CF00021E0892B09F420E0822F08958EEB94E007
:100D00000E94680621E0892B09F420E0822F0895D3
:100D10008BE595E00E94680621E0892B09F420E02C
:100D2000822F089588EF95E00E94680621E0892BC4
:100D300009F420E0822F0895FC01A48DA80FB92F9B
:100D4000B11DA35ABF4F2C91848D90E001968F73F3
:100D50009927848FA689B7892C93A089B1898C9112
:100D6000837080648C93938D848D981306C0028861
:100D7000F389E02D80818F7D80830895EF92FF922B
:100D80000F931F93CF93DF93EC0181E0888F9B8DAE
:100D90008C8D98131AC0E889F989808185FF15C068
:100DA0009FB7F894EE89FF896083E889F98980818B
:100DB0008370806480839FBF81E090E0DF91CF915A
:100DC0001F910F91FF90EF900895F62E0B8D10E07C
:100DD0000F5F1F4F0F731127E02E8C8D8E110CC0EB
:100DE0000FB607FCFACFE889F989808185FFF5CF36
:100DF000CE010E949C06F1CFEB8DEC0FFD2FF11D73
:100E0000E35AFF4FF0829FB7F8940B8FEA89FB8972
:100E100080818062CFCF0C94BE06CF93DF93EC012C
:100E2000888D8823B9F0AA89BB89E889F9898C91D2
:100E300085FD03C0808186FD0DC00FB607FCF7CF8E
:100E40008C9185FFF2CF808185FFEDCFCE010E948E
:100E50009C06E9CFDF91CF91089580E090E0892B47
:100E600029F00E94920681110E94000080E090E02B
:100E7000892B29F00E94880681110E94000080E0E1
:100E800090E0892B29F00E947E0681110E940000CB
:100E900080E090E0892B29F00E94740681110C9467
:100EA000000008958150823108F05AC0E82FF0E028
:100EB0008827E25AF84F8F4F0C9447267E07820707
:100EC000700776077A07B00785078B078F079507A6
:100ED00099079D07A307A707B007AB07B107B50799
:100EE000809180008F7780938000089580918000AA
:100EF0008F7DF9CF80918000877FF5CF84B58F7784
:100F000084BD089584B58F7DFBCF8091B0008F772D
:100F10008093B00008958091B0008F7DF9CF8091CB
:100F200090008F77809390000895809190008F7D3E
:100F3000F9CF80919000877FF5CF8091A0008F77C7
:100F40008093A00008958091A0008F7DF9CF8091BB
:100F5000A000877FF5CF809120018F7780932001BB
:100F60000895809120018F7DF9CF80912001877FA6
:100F7000F5CFCF93DF93282F30E0F901E85AFC4FEB
:100F80008491F901EE5EFC4FD491F901E453FD4FD9
:100F9000C491CC23A1F081110E945207EC2FF0E004
:100FA000EE0FFF1FEE54FD4FA591B491EC91ED2390
:100FB00081E090E009F480E0DF91CF91089580E036
:100FC00090E0FACF1F93CF93DF93282F30E0F90101
:100FD000E85AFC4F8491F901EE5EFC4FD491F9017F
:100FE000E453FD4FC491CC23A9F0162F81110E9428
:100FF0005207EC2FF0E0EE0FFF1FE856FD4FA591D2
:10100000B4918FB7F894EC91111108C0D095DE23FC
:10101000DC938FBFDF91CF911F910895DE2BF8CF26
:10102000CF93DF9390E0FC01EE5EFC4F249184535C
:101030009D4FFC0184918823D1F090E0880F991F87
:10104000FC01E258FD4FA591B491FC01E856FD4F1B
:10105000C591D491623071F49FB7F8943C91822F7E
:10106000809583238C93E8812E2B28839FBFDF916B
:10107000CF9108958FB7F894EC912E2B2C938FBFBE
:10108000F6CF982FE82FF0E0E85AFC4FE491E150BA
:10109000E23108F0B0C0F0E08827EE5AF74F8F4FEA
:1010A0000C944726640869086E0878088208FB08D3
:1010B0008C0894089C08A608B008BA08C908D30888
:1010C000FB08DD08E708F10884B5806884BD67BDCA
:1010D000089584B5806284BD68BD089580918000C4
:1010E00080688093800070938900609388000895E1
:1010F0008091800080628093800070938B00609369
:101100008A000895809180008860809380007093A9
:101110008D0060938C0008958091B000806880936A
:10112000B0006093B30008958091B0008062809316
:10113000B0006093B400089580919000806880931F
:1011400090007093990060939800089580919000AA
:1011500080628093900070939B0060939A00089542
:101160008091900088608093900070939D006093C0
:101170009C0008958091A00080688093A0008091D9
:10118000A0008F7B8093A0007093A9006093A800BB
:1011900008958091A00080628093A0007093AB00BE
:1011A0006093AA0008958091A00088608093A000B9
:1011B0007093AD006093AC00089580912001806829
:1011C00080932001709329016093280108958091F4
:1011D000200180628093200170932B0160932A018B
:1011E00008958091200188608093200170932D01E3
:1011F00060932C0108956038710524F460E0892F14
:101200000C94E20761E0FBCF3FB7F894809135037F
:1012100090913603A0913703B091380326B5A89B6F
:1012200005C02F3F19F00196A11DB11D3FBFBA2F78
:10123000A92F982F8827BC01CD01620F711D811D38
:10124000911D42E0660F771F881F991F4A95D1F7BD
:1012500008958F929F92AF92BF92CF92DF92EF92BA
:10126000FF924B015C010E9404096B017C010E940A
:1012700004096C197D098E099F09683E7340810538
:101280009105A8F321E0821A9108A108B10888EE1F
:10129000C80E83E0D81EE11CF11C81149104A10446
:1012A000B10429F7FF90EF90DF90CF90BF90AF90FF
:1012B0009F908F9008952FB7F894609131037091AB
:1012C000320380913303909134032FBF089520910E
:1012D0000D03260F3327331F21323105ECF4209103
:1012E000F703FC0190E080E0243069F082E008958B
:1012F000A0910D032191AC0143515D4FA40FB52F77
:10130000B11D2C930196861798F380910D03680FF9
:1013100060930D0380E0089581E008951092F70333
:1013200081E08093F6031092D10361E084E10E9492
:10133000E20761E085E10E94E207E9EBF0E08081ED
:101340008E7F808380818D7F808388E48093B80046
:1013500085E48093BC000895CF93DF9391E0909350
:10136000EC028823B9F0C091B800D091BA00809106
:10137000BC008A7B8093BC0060E084E10E94E207AD
:1013800060E085E10E94E2070E948E09D093BA00D6
:10139000C093B800DF91CF9108958F929F92AF9242
:1013A000BF92CF92DF92EF92FF920F931F93CF9352
:1013B000DF93D0912004D13208F0D7C0182FC0910C
:1013C0001F040E9404096B017C018091F7038111C5
:1013D0006BC082E08093F7031093F6038FEF809346
:1013E000F5031092F403D093F303AFEFB3E0E3ED12
:1013F000F3E080E0D81391C01092D2038091D20321
:10140000CC0FC82BC093D2038091D103813009F057
:1014100088C01092D1030E9404096B017C01809165
:10142000D2038093BB008091F9039091FA03A091BD
:10143000FB03B091FC03892B8A2B8B2BA1F00E941C
:1014400004090091F9031091FA032091FB033091F4
:10145000FC036C197D098E099F09061717072807D9
:10146000390708F442C08091BC0083FDD8CF85ECD9
:101470008093BC000E9404096B017C018091F703FA
:10148000823009F450C08091F5038F3F09F46FC09A
:101490008091F503803209F46CC08091F5038033AC
:1014A00009F469C084E026C08091F9039091FA03A1
:1014B000A091FB03B091FC03892B8A2B8B2B09F4A1
:1014C00084CF0E9404098090F9039090FA03A090C1
:1014D000FB03B090FC036C197D098E099F098616E9
:1014E0009706A806B90608F070CF8091F8030E940D
:1014F000AC0985E01092FE03109220041092FD03C7
:10150000DF91CF911F910F91FF90EF90DF90CF90DF
:10151000BF90AF909F908F9008959D9191938F5F12
:1015200069CF85EEA5CF8091F9039091FA03A09140
:10153000FB03B091FC03892B8A2B8B2B09F49ECFE4
:101540000E9404090091F9031091FA032091FB0312
:101550003091FC036C197D098E099F090617170746
:101560002807390708F08ACFC0CF81E0C3CF80E0D9
:10157000C1CF82E0BFCF83E0BDCF0F931F93CF9346
:10158000DF938A01E901209711F4C5E9D6E091E0E3
:101590009093FD0380931F041092FE031092200489
:1015A000E881F9810190F081E02DCE011995D801F3
:1015B00011966C91E881F9810190F081E02DCE01C6
:1015C0001995E881F9810190F081E02DD8016C91A5
:1015D000CE01199581E00E94CD0991E0811190E042
:1015E000892FDF91CF911F910F910895CF92DF92B4
:1015F000EF92FF920F931F93CF93DF93D82FC62FB5
:10160000613208F098C00E9404096B017C0180914E
:10161000F70381116BC081E08093F7038093F60399
:101620009FEF9093F5031092F4039C0F9093F303B4
:101630008093D2038091D203DD0FD82BD093D203B5
:101640008091D103813009F078C01092D1030E94BB
:1016500004096B017C018091D2038093BB008091CF
:10166000F9039091FA03A091FB03B091FC03892B3D
:101670008A2B8B2BA1F00E9404090091F903109191
:10168000FA032091FB033091FC036C197D098E094C
:101690009F09061717072807390708F448C08091E3
:1016A000BC0083FDD8CF85EC8093BC000E94040968
:1016B0006B017C018091F703813009F440C0809177
:1016C000F4038C1710F4C091F403E3EDF3E0A1EB05
:1016D000B3E080E08C1355C08C2FDF91CF911F9128
:1016E0000F91FF90EF90DF90CF9008958091F903D4
:1016F0009091FA03A091FB03B091FC03892B8A2BF4
:101700008B2B09F484CF0E9404090091F9031091F6
:10171000FA032091FB033091FC036C197D098E09BB
:101720009F09061717072807390708F070CF80911F
:10173000F8030E94AC09C0E0CFCF85EEB5CF809111
:10174000F9039091FA03A091FB03B091FC03892B5C
:101750008A2B8B2B09F4AECF0E9404090091F90368
:101760001091FA032091FB033091FC036C197D0961
:101770008E099F09061717072807390708F09ACF1F
:10178000D6CF91919D938F5FA5CF0895E091B0033F
:101790008091AF03E81730F4F0E0EF54FC4F808104
:1017A00090E008958FEF9FEF08959091B00380919E
:1017B000AF032FEF3FEF981748F4E92FF0E0EF5415
:1017C000FC4F208130E09F5F9093B003C9010895E2
:1017D0008091AF039091B003891B990B0895CF922C
:1017E000DF92EF92FF920F931F93CF93DF937C01D1
:1017F000CB018A012091FD03222389F0EB016B01CB
:10180000C40ED51ECC15DD0569F06991D701ED91A7
:10181000FC910190F081E02DC7011995F3CF642F61
:101820000E946709C801DF91CF911F910F91FF902E
:10183000EF90DF90CF900895CF93DF931F92CDB7B5
:10184000DEB769832091FD032223F9F02091200463
:10185000203258F021E030E0FC013383228390E015
:1018600080E00F90DF91CF9108958091FE03E82FE3
:10187000F0E0E150FC4F998190838F5F8093FE03ED
:101880008093200481E090E0ECCF61E0CE010196EE
:101890000E946709F7CF90E080E00895DF92EF9211
:1018A000FF920F931F93CF93DF93E42ED22EF32E4C
:1018B000E801209711F4C5E9D6E091E09093FD038B
:1018C00080931F041092FE0310922004E881F98196
:1018D0000190F081E02DCE0119950D2D1F2DE00E08
:1018E000F12EF11C0E151F0559F0F80161918F01C1
:1018F000E881F9810190F081E02DCE011995F2CFB8
:1019000081E00E94CD0991E0811190E0892FDF9163
:10191000CF911F910F91FF90EF90DF900895CF939B
:10192000DF931F921F92CDB7DEB75A834983AE0172
:101930004F5F5F4F0E94BD0A0F900F90DF91CF91D4
:1019400008950F931F93CF93DF931F92CDB7DEB708
:10195000498389019E012F5F3F4F41E00E944E0C59
:101960000F90DF91CF911F910F910895EDEBF6E06D
:1019700021813281482F6EE680810C94A10C2F9238
:101980003F924F925F926F927F928F929F92AF920F
:10199000BF92CF92DF92EF92FF920F931F93CF935C
:1019A000DF9300D000D0CDB7DEB789836A83D42E11
:1019B0003C832B83FE82ED820E945B094B015C011C
:1019C000ED80FE80EF2821F485E996E09E838D83EB
:1019D000F12CE12CC12C2D2C312C2801712C612CE7
:1019E000E214F3040CF05DC091E09093FD03A98133
:1019F000A0931F041092FE0310922004AD81BE81BB
:101A0000ED91FC9111970190F081E02D6A81CD015B
:101A1000199581E00E94CD09B1016E197F096132EB
:101A2000710514F060E270E0613208F060E28981D3
:101A30000E94F60A1092B0038093AF03AD81BE817D
:101A4000ED91FC9111970084F185E02DCD01199560
:101A5000892BF9F00115110589F4AD81BE81ED9155
:101A6000FC9111970284F385E02DCD011995EB814E
:101A7000FC81EC0DF11D8083C394E0CF0E945B09D3
:101A8000681979098A099B09641575058605970502
:101A900020F38D2DB0E2BD1508F480E2E80EF11CB4
:101AA0009FCF0115110589F00E945B09681979091A
:101AB0008A099B0930E020E06017710782079307CD
:101AC00020F0CD1410F4CC24CA948C2D26960FB699
:101AD000F894DEBF0FBECDBFDF91CF911F910F9164
:101AE000FF90EF90DF90CF90BF90AF909F908F903E
:101AF0007F906F905F904F903F902F900895EF925E
:101B0000FF920F931F93CF93DF931F92CDB7DEB752
:101B1000E090BE06F090BF0608EE13E09E012F5F36
:101B20003F4F41E065E78091BD060E94BF0C8823CE
:101B300039F089818E7790E0959587958093C006DE
:101B40008091C0060F90DF91CF911F910F91FF9070
:101B5000EF900895EF92FF920F931F93CF93DF932F
:101B6000CDEBD6E0E980FA8008EE13E020EC36E019
:101B700042E062E788810E94BF0C8B819C8198279C
:101B800089279827DF91CF911F910F91FF90EF90B8
:101B900008957F928F929F92AF92BF92CF92DF92E1
:101BA000EF92FF920F931F93CF93DF931F92CDB7C6
:101BB000DEB7A82E962E742E822EB02E08EE13E0DD
:101BC0009E012F5F3F4F41E00E94BF0C882399F197
:101BD000872D8819990BAC014F5F5F4F81E090E032
:101BE00002C0880F991F8A94E2F70197042E01C062
:101BF000880F0A94EAF72B2D01C0220F4A95EAF7C5
:101C0000482F4095B9804B218223482B4983970167
:101C1000692D8A2D0E94A10C0F90DF91CF911F9109
:101C20000F91FF90EF90DF90CF90BF90AF909F907B
:101C30008F907F90089580E0EFCF8F929F92AF9228
:101C4000BF92CF92DF92EF92FF920F931F93CF93A9
:101C5000DF931F92CDB7DEB7B82EA62E842E922E1C
:101C60006801780108EE13E09E012F5F3F4F41E0CD
:101C70000E94BF0C81E090E001C0880F8A94EAF7CF
:101C800049819920A9F0482B498396016A2D8B2D13
:101C90000E94A10C0F90DF91CF911F910F91FF90A7
:101CA000EF90DF90CF90BF90AF909F908F9008956E
:101CB00080954823E9CF0F931F93FC010181128186
:101CC00021E042E06AE680810E941D0E1F910F9183
:101CD00008953F924F925F926F927F928F929F9260
:101CE000AF92BF92CF92DF92EF92FF920F931F932A
:101CF000CF93DF93782E662E6A017901E8010E9466
:101D00005B094B015C01209711F4C5E9D6E081E045
:101D10008093FD0370921F041092FE031092200422
:101D2000E881F9810190F081E02D662DCE011995B1
:101D300081E00E94CD0962E0872D0E94F60A109290
:101D4000B0038093AF0301E010E02701712C612CF8
:101D500033243394E881F9810084F185E02DCE01AC
:101D60001995892BE9F111113BC0E114F104C9F473
:101D7000E881F9810284F385E02D01110CC0CE01C8
:101D80001995F60120813181822B932B91838083D9
:101D900011E00325DFCFCE011995F6011082818372
:101DA000F8CF0E945B09681979098A099B096415B3
:101DB000750586059705E0F20E945B09AB01BC0141
:101DC000481959096A097B09C701B0E0A0E0481722
:101DD00059076A077B0738F0111105C01FEF03C0D0
:101DE000E114F10449F7812FDF91CF911F910F91F9
:101DF000FF90EF90DF90CF90BF90AF909F908F902B
:101E00007F906F905F904F903F9008952F923F92F8
:101E10004F925F926F927F928F929F92AF92BF92FA
:101E2000CF92DF92EF92FF920F931F93CF93DF93A6
:101E3000CDB7DEB7E7970FB6F894DEBF0FBECDBFC4
:101E40008F8F48A759A76AA77BA70CA71DA72EA706
:101E50003FA78B3309F047C20E947F0D883308F4F7
:101E6000B4C297E79F8BA3E0AA8FE090BE06F090E4
:101E7000BF0608EE13E09E012F5F3F4F41E06CE18B
:101E80008091BD060E94BF0C882351F08981887122
:101E900090E023E0959587952A95E1F78093C00619
:101EA0008091C006E12C10E8F12E00E010E004C0A3
:101EB00015950795F794E7948A95D2F76EE370E04D
:101EC00088EF95E00E940B07CE010D969E8B8D8BBF
:101ED000DE011196B98FA88F6C01BF880091BE06F4
:101EE0001091BF0628EE33E0AE014D5E5F4F6B2DC3
:101EF0008091BD060E94690E8B889C88B401092CD4
:101F0000000C880B990B0E94DB22FF89F33109F446
:101F1000F2C121E082229924D6018D929C9220E088
:101F200030E040E051E40E94BF23E88DF98D6083EA
:101F3000718382839383BA8DBB0EE2E0CE0ED11CF7
:101F4000288D398D2C5F3F4F398F288F8D899E8941
:101F50002817390719F69F8D9B3309F0DAC18DECEC
:101F60009CECACE4BDE388AB99ABAAABBBABA6E001
:101F7000B0E0BFA3AEA3C701B0E0A0E08CAB9DABC7
:101F8000AEABBFAB19A218A2312C212CDE011196E9
:101F9000BC8FAB8FFE013D96FBA3EAA3FF89FCA398
:101FA0002F8D2DA3812C912C54011E8E1D8E0091FE
:101FB000BE061091BF0628EE33E0AE014D5E5F4FC6
:101FC0006DA18091BD060E94690E6B897C89072EE8
:101FD000000C880B990B0E94DB226B017C013F8D6A
:101FE0003B3391F48D8D9E8D029771F46CA97DA980
:101FF0008EA99FA90E94D9229B01AC01C701B601FD
:102000000E944D216B017C012601370177FA709403
:1020100077F87094C501B4010E94D9224B015C018C
:1020200020E030E0A901C701B6010E94B2231816D2
:1020300014F073016201A7019601C501B4010E9469
:102040004E210E94AA224B015C012FE632E143E8B7
:102050005AE3C301B2010E94BF232CA53DA54EA5A2
:102060005FA50E94BF23AB8DBC8D2D913D914D91FD
:102070005C910E944E216B017C01EB8DFC8DC08236
:10208000D182E282F38228A539A54AA55BA5C301C6
:10209000B2010E94BF23A70196010E944E21FF8931
:1020A000F33109F440C120E030E040E05EE30E94FB
:1020B000BF236B017C0120E030E0A9010E94B22324
:1020C00020E030E040E05FE387FD28C1C701B601B2
:1020D0000E944E210E94A3226E7FAAA1BBA18D91D6
:1020E0009C91682B792B7C8B6B8B2091BE06309159
:1020F000BF06AE014D5E5F4F6CA18091BD060E9490
:10210000BD0AED8DFE8D3196FE8FED8FFDA1FE5F38
:10211000FDA32CA13A8D230F2CA38AA19BA102968B
:102120009BA38AA3AB8DBC8D1496BC8FAB8FED8D1A
:10213000FE8D339709F03BCFF3E62F16310479F487
:1021400029EE821623E09206A104B10440F06AE26F
:1021500070E088EF95E00E940B07312C212CC5011F
:10216000B4010E94D92228A939A94AA95BA90E94D1
:10217000BF2320E030E040EA50E40E942C2287FF99
:1021800005C088A199A1019699A388A394E6891610
:102190009104A104B10408F0E5C0ABE02A163104B3
:1021A0000CF4E0C0E8A1F9A13A970CF4DBC06EE2B0
:1021B00070E088EF95E00E940B0720E030E040E4FB
:1021C0005FE368A579A58AA59BA50E94BF2368A7A0
:1021D00079A78AA79BA720E030E040E45FE36CA5E5
:1021E0007DA58EA59FA50E94BF236CA77DA78EA766
:1021F0009FA79E01235F3F4F6901FF88CE01019693
:102200003C01F30161917191819191913F01FF89AD
:10221000F33109F4BBC020E030E040E05EE30E940F
:10222000BF234B015C0120E030E0A9010E94B223F2
:1022300020E030E040E05FE387FDA3C0C501B401CA
:102240000E944E210E94A3226E7FD6018D919C9107
:10225000682B792B7C8B6B8B2091BE063091BF064F
:10226000AE014D5E5F4F6F2D8091BD060E94BD0A8D
:10227000BA8DFB0EE2E0CE0ED11C288D398D2615CD
:10228000370509F0BECF8EA19FA101979FA38EA312
:10229000892B09F077CE8DEB96E00E945B0E0091C2
:1022A000BE061091BF0621E043E06AE68091BD06BC
:1022B0000E941D0EE7960FB6F894DEBF0FBECDBF8D
:1022C000DF91CF911F910F91FF90EF90DF90CF9012
:1022D000BF90AF909F908F907F906F905F904F9046
:1022E0003F902F90089523E12F8B32E03A8FE12C1D
:1022F00080E2F82EE3CD20E030E040E850E40E9498
:10230000BF23A88DB98D6D937D938D939C93139767
:1023100012CE80E090E0A0E8BFE325CEC701B60171
:102320000E944D21D7CE20E030E040E85EE30E94DD
:10233000BF236B017C0120E030E0A9010E94B223A1
:1023400020E030E040E05FE387FD07C0C701B60151
:102350000E944E210E94A322C6CEC701B6010E9450
:102360004D21F8CF61E070E080E090E00E94290903
:102370009FEF291A390AA4E62A16310409F006CE7D
:1023800016CFC501B4010E944D215CCF20E030E0A2
:1023900040E85EE30E94BF234B015C0120E030E097
:1023A000A9010E94B22320E030E040E05FE387FD16
:1023B00007C0C501B4010E944E210E94A3224ACF4A
:1023C000C501B4010E944D21F8CFB6E0BF8BE2E019
:1023D000EA8F4BCDFC0101900020E9F73197AF0166
:1023E000481B590BBC0188EF95E00C94F1058F92C6
:1023F0009F92AF92BF920F931F93CF93DF93CDB76E
:10240000DEB7A1970FB6F894DEBF0FBECDBF19A2FD
:10241000423008F44AE08E010F5D1F4F842E912C4C
:10242000B12CA12CA50194010E942B21E62FB9010A
:10243000CA01EA30F4F4E05DD801EE938D01232B5C
:10244000242B252B79F790E080E0109719F0CD012F
:102450000E94EA11A1960FB6F894DEBF0FBECDBF61
:10246000DF91CF911F910F91BF90AF909F908F9070
:102470000895E95CE1CFCF92DF92EF92FF92CF9384
:10248000DF936C01990FEE08FF08F7FE19C06DE2AB
:1024900088EF95E00E94BE06EC0166277727CB0106
:1024A0006C197D098E099F094AE00E94F7118C0F73
:1024B0009D1FDF91CF91FF90EF90DF90CF90089517
:1024C0004AE0C701B601DF91CF91FF90EF90DF9016
:1024D000CF900C94F711CF93DF930E94EA11EC0197
:1024E0008CE492E00E94EA118C0F9D1FDF91CF9146
:1024F00008952F923F924F925F926F927F928F92A8
:102500009F92AF92BF92CF92DF92EF92FF920F9382
:102510001F93CF93DF9300D01F92CDB7DEB73C015E
:102520004B01242E522E302E2091BE063091BF0634
:102530006DE68091BD060E94A10C852D0E94B60C0F
:1025400080E190E00E9463265C01002369F180E154
:1025500090E00E9463269C838B83D12CC12CC60102
:102560004096482C4C188816990610F080E1482EA9
:1025700080E091E0851991094816190619F014F0C8
:10258000452C4194332099F0AB81BC8190E080E0F0
:1025900093012C0D3D1D841578F4F901E80FF91F06
:1025A000E491ED930196F7CF1C821B82D6CFC30135
:1025B0008C0D9D1D9C838B830091BE061091BF06E0
:1025C0002B813C81442D6FE68091BD060E944E0C0C
:1025D000842D90E09A838983A114B10409F446C044
:1025E0002091BE063091BF06422D4F716DE680915D
:1025F000BD060E94A10C852D0E94B60CE090BE067F
:10260000F090BF0608EE13E09501442D6FE680912F
:10261000BD060E94BF0C49815A81B5018B819C8106
:102620000E948827892B11F1C5010E94FF263320C3
:1026300029F08B819C810E94FF26312C832D0F90E5
:102640000F900F900F90DF91CF911F910F91FF90FE
:10265000EF90DF90CF90BF90AF909F908F907F9042
:102660006F905F904F903F902F90089589819A814D
:10267000C80ED91EC814D904B8F4540C09F4239414
:102680002091BE063091BF06422D4F716DE68091BC
:10269000BD060E94A10C852D0E94B60C60CF8B81D7
:1026A0009C810E94FF26CACFC5010E94FF263110DF
:1026B000F6CF33243394C2CF85ED8093BC00809154
:1026C000F9039091FA03A091FB03B091FC030796E4
:1026D000A11DB11D23E0B695A795979587952A95DD
:1026E000D1F72091BC0024FD03C01092F703089598
:1026F0004091F9035091FA036091FB037091FC0340
:10270000452B462B472B69F30097A105B10541F0F6
:102710002AE22A95F1F700C00197A109B109E1CF9A
:102720008091F8030C94AC092F923F924F925F92E4
:102730006F927F928F929F92AF92BF92CF92DF92D1
:10274000EF92FF920F931F93CF93DF9300D000D0AF
:1027500000D01F92CDB7DEB79C018A014FE7469F9C
:10276000C001479F900D112464E670E00E9433265B
:102770006B01B901330F880B990B0E94DB222BED03
:102780003FE049E450E40E94BF2320E030E044E30E
:1027900053E40E9431222B013C018EE393E09A879F
:1027A0008987A8E0B2E0BA83A9832CED222E22E02B
:1027B000322E3C822B820D2C000CEE08FF08C80143
:1027C000110FAA0BBB0B8D839E83AF83B887A9859E
:1027D000BA856D917D918D919D91BA87A987A3014D
:1027E00092010E944D210E947C244B015C01E981F1
:1027F000FA8101911191FA83E983C701B6010E9420
:10280000DB22A50194010E94BF234B015C016D8175
:102810007E818F8198850E94DB229B01AC01C501DE
:10282000B4010E944E214B015C01B801110F880BCD
:10283000990B0E94DB229B01AC01C501B4010E94EF
:10284000BF23AB81BC816D937D938D939D93BC839E
:10285000AB83E985FA85EE54F34009F0B8CF0CEE6E
:1028600012E08CED92E09C838B83812C912C54019F
:10287000AB81BC81CD90DD90ED90FD90BC83AB83AE
:1028800020E030E0A901C701B6010E94B22318166A
:102890000CF487C0C701B6019058A50194010E94AD
:1028A000B22318167CF420E030E0A901C701B6017C
:1028B0000E94B22346015701181624F0B7FAB094CB
:1028C000B7F8B094EB81FC810E171F0789F620E062
:1028D00030E04EEF52E4C501B4010E94B223412C16
:1028E000512C90E8692E9FE3792E181654F4A50117
:1028F000940160E070E08EEF92E40E9431222B019F
:102900003C0180E2A82E82E0B82E08E112E0D1015D
:102910006D917D918D919D911D01A30192010E9468
:10292000BF230E94A3226B01F5018081F2E0AF0E6C
:10293000B11C61E00E94E207D801BC91B9830E5F2F
:102940001F4F61E08B2F0E94100860E0E2E8CE1676
:10295000EFEFDE062CF0F0E8CF16D1042CF161E0A9
:1029600089810E94E2078B819C818215930579F60B
:102970002A960FB6F894DEBF0FBECDBFDF91CF9180
:102980001F910F91FF90EF90DF90CF90BF90AF908D
:102990009F908F907F906F905F904F903F902F907F
:1029A0000895C701B60179CFB60161587F4F89817B
:1029B0000E944108D8CF1F920F920FB60F92112498
:1029C0000BB60F922F933F934F935F936F937F9329
:1029D0008F939F93AF93BF93EF93FF9381E294E024
:1029E0000E949C06FF91EF91BF91AF919F918F91B3
:1029F0007F916F915F914F913F912F910F900BBEFF
:102A00000F900FBE0F901F9018951F920F920FB648
:102A10000F9211240BB60F922F933F934F935F9316
:102A20006F937F938F939F93AF93BF93EF93FF9396
:102A300081E294E00E941E06FF91EF91BF91AF9159
:102A40009F918F917F916F915F914F913F912F91C6
:102A50000F900BBE0F900FBE0F901F9018951F92F6
:102A60000F920FB60F9211240BB60F922F933F9334
:102A70004F935F936F937F938F939F93AF93BF9386
:102A8000EF93FF938EEB94E00E949C06FF91EF91F1
:102A9000BF91AF919F918F917F916F915F914F9176
:102AA0003F912F910F900BBE0F900FBE0F901F9074
:102AB00018951F920F920FB60F9211240BB60F921A
:102AC0002F933F934F935F936F937F938F939F9336
:102AD000AF93BF93EF93FF938EEB94E00E941E069B
:102AE000FF91EF91BF91AF919F918F917F916F91E6
:102AF0005F914F913F912F910F900BBE0F900FBEA2
:102B00000F901F9018951F920F920FB60F921124DD
:102B10000BB60F922F933F934F935F936F937F93D7
:102B20008F939F93AF93BF93EF93FF938BE595E0C4
:102B30000E949C06FF91EF91BF91AF919F918F9161
:102B40007F916F915F914F913F912F910F900BBEAD
:102B50000F900FBE0F901F9018951F920F920FB6F7
:102B60000F9211240BB60F922F933F934F935F93C5
:102B70006F937F938F939F93AF93BF93EF93FF9345
:102B80008BE595E00E941E06FF91EF91BF91AF91FA
:102B90009F918F917F916F915F914F913F912F9175
:102BA0000F900BBE0F900FBE0F901F9018951F92A5
:102BB0000F920FB60F9211240BB60F922F933F93E3
:102BC0004F935F936F937F938F939F93AF93BF9335
:102BD000EF93FF9388EF95E00E949C06FF91EF91A1
:102BE000BF91AF919F918F917F916F915F914F9125
:102BF0003F912F910F900BBE0F900FBE0F901F9023
:102C000018951F920F920FB60F9211240BB60F92C8
:102C10002F933F934F935F936F937F938F939F93E4
:102C2000AF93BF93EF93FF9388EF95E00E941E064A
:102C3000FF91EF91BF91AF919F918F917F916F9194
:102C40005F914F913F912F910F900BBE0F900FBE50
:102C50000F901F9018951F920F920FB60F9211248C
:102C60002F933F938F939F93AF93BF9380913103A3
:102C700090913203A0913303B0913403309130032B
:102C800023E0230F2D3758F50196A11DB11D209388
:102C900030038093310390933203A0933303B093B6
:102CA00034038091350390913603A0913703B0919E
:102CB00038030196A11DB11D80933503909336030F
:102CC000A0933703B0933803BF91AF919F918F9139
:102CD0003F912F910F900FBE0F901F90189526E8EF
:102CE000230F0296A11DB11DD2CF1F920F920FB6D6
:102CF0000F9211240BB60F922F933F934F935F9334
:102D00006F937F938F939F93AF93BF93EF93FF93B3
:102D10008091B900887F803609F44DC008F040C02A
:102D2000883209F4A9C028F5803109F49DC0C8F49F
:102D3000882309F4FBC0883009F496C0FF91EF9115
:102D4000BF91AF919F918F917F916F915F914F91C3
:102D50003F912F910F900BBE0F900FBE0F901F90C1
:102D60001895883109F488C0803241F78093F503C3
:102D700014C0803409F49DC040F48033B9F3883323
:102D8000E9F68093F50385ECB0C0803509F485C081
:102D9000883509F496C0883489F60E945C13CECF3A
:102DA000883909F48CC038F5883729F050F4883612
:102DB00011F0803719F683E08093F70310922F0308
:102DC00057C0883809F47BC0803919F0803809F081
:102DD000B5CF80912F03803208F071C0E0912F03AE
:102DE00081E08E0F80932F038091BB00F0E0E15FC4
:102DF000FC4F80833DC0803B39F0E0F4803A09F419
:102E000079C0883A09F09ACF84E08093F703109252
:102E10000E0310920D03E0913B03F0913C031995D2
:102E200080910D0381110FC081E080930D031092FA
:102E3000ED0209C0803C09F4A6CF883C09F4A3CF79
:102E4000883B09F07BCFE0910E0381E08E0F8093E9
:102E50000E03F0E0E351FD4F80818093BB00909121
:102E60000E0380910D0329C08091D2038093BB0093
:102E700085EC8093BC0062CF9091F4038091F303C2
:102E8000981758F5E091F40381E08E0F8093F403D6
:102E9000F0E0ED52FC4F8081E9CFE091F40381E056
:102EA0008E0F8093F4038091BB00F0E0ED52FC4F55
:102EB00080839091F4038091F3039817C8F285E81A
:102EC000D8CFE091F40381E08E0F8093F4038091DA
:102ED000BB00F0E0ED52FC4F80838091F60381113E
:102EE0005CCF81E08093D10384EA8093BC00109290
:102EF000F70324CF85EC8093BC001092F7038091F8
:102F00002F03803230F4E0912F03F0E0E15FFC4FBB
:102F1000108260912F0370E0E0913903F0913A0341
:102F20008FE093E0199510922F0308CF1092F503CC
:102F300034CFE1E2F4E01382128288EE93E0A0E065
:102F4000B0E084839583A683B7832CE232E031839B
:102F5000208345E351E05587448744E351E0578798
:102F6000468740E351E0518B408B41E351E0538B66
:102F7000428B42E351E0558B448B46E351E0578B43
:102F8000468B118E128E138E148EEEEBF4E01382AC
:102F9000128284839583A683B7833183208345ED92
:102FA00050E05587448744ED50E05787468740ED11
:102FB00050E0518B408B41ED50E0538B428B42ED02
:102FC00050E0558B448B46ED50E0578B468B118E6D
:102FD000128E138E148EEBE5F5E013821282848339
:102FE0009583A683B783318320834DEC50E05587CA
:102FF00044874CEC50E05787468748EC50E0518BB3
:10300000408B49EC50E0538B428B4AEC50E0558B9F
:10301000448B4EEC50E0578B468B118E128E138EE4
:10302000148EE8EFF5E01382128284839583A683E1
:10303000B7833183208325EC30E03587248724EC67
:1030400030E03787268720EC30E0318B208B21EC75
:1030500030E0338B228B22EC30E0358B248B26EC56
:1030600030E0378B268B118E128E138E148EE5E98D
:10307000F6E01382128284839583A683B7838EE35E
:1030800092E091838083EDEBF6E088E68083128204
:10309000118288EF9AE2A0E0B0E0818B928BA38B43
:1030A000B48BEDEAF6E080E090E0A0E8BFE3808337
:1030B0009183A283B38314821582168217821086AD
:1030C0001186128613861486158616861786E1EAFF
:1030D000F6E0108211821282138214821582168207
:1030E000178210861186128613860895CF93DF9378
:1030F000CDB7DEB7E8970FB6F894DEBF0FBECDBFF1
:10310000789484B5826084BD84B5816084BD85B5C2
:10311000826085BD85B5816085BD80916E008160CE
:1031200080936E0010928100809181008260809374
:103130008100809181008160809381008091800076
:103140008160809380008091B10084608093B100A1
:103150008091B00081608093B00080919100826086
:103160008093910080919100816080939100809183
:1031700090008160809390008091A1008260809394
:10318000A1008091A10081608093A1008091A000A6
:1031900081608093A0008091210182608093210151
:1031A00080912101816080932101809120018160C3
:1031B0008093200180917A00846080937A008091CE
:1031C0007A00826080937A0080917A008160809397
:1031D0007A0080917A00806880937A001092C10012
:1031E00088EF95E00E94C8058BE595E00E94C80530
:1031F0008EEB94E00E94C80581E294E00E94C8052D
:103200001092B0031092AF031092FE0310922004AC
:103210000E948E098FEE95E090933C0380933B03D0
:1032200080EF95E090933A03809339038CE080938C
:10323000B800E090BE06F090BF0601E023E042E057
:103240006BE68091BD060E94C90D80E090E0AAEF78
:10325000BBE38093D6069093D706A093D806B0938D
:10326000D906E090BE06F090BF0600E022E044E000
:103270006BE18091BD060E94C90D80E090E0A0E85E
:10328000B8E38093D2069093D306A093D406B0936C
:10329000D506E090BE06F090BF0622E044E06CE167
:1032A0008091BD060E94C90D0091BE061091BF0617
:1032B00020E046E06BE68091BD060E941D0E009165
:1032C000BE061091BF0621E047E06BE68091BD0687
:1032D0000E941D0E6EE170E080E090E00E942909DE
:1032E0000091BE061091BF0620E046E06BE680919B
:1032F000BD060E941D0E2091BE063091BF0640E71C
:103300006DE68091BD060E94A10C86E00E94B60C7D
:103310002091BE063091BF0640E06DE68091BD066B
:103320000E94A10C2091BE063091BF064FE765E2D6
:103330008091BD060E94A10C0091BE061091BF06AF
:1033400020E045E06AE68091BD060E941D0E2091B6
:10335000BE063091BF0648E665E28091BD060E9438
:10336000A10C0091BE061091BF0621E041E06AE683
:103370008091BD060E941D0E64E170E080E090E047
:103380000E942909E090BE06F090BF0603E023E00A
:1033900042E06BE68091BD060E94C90D2091BE06F9
:1033A0003091BF0642E168E38091BD060E94A10C06
:1033B0002091BE063091BF0644E069E18091BD06D0
:1033C0000E94A10CE090BE06F090BF0601E023E051
:1033D00045E06AE18091BD060E94C90DE090BE06FD
:1033E000F090BF0603E023E042E06AE18091BD0671
:1033F0000E94C90D80E090E0AAE7BDE38093D60665
:103400009093D706A093D806B093D906E090BE0655
:10341000F090BF0622E044E06BE18091BD060E947F
:10342000C90D01E020E040E069E877E08EE993E033
:103430000E947912882309F4CCC1198281E08A8321
:1034400000E026E142E062E070E0CE0101960E94D9
:1034500079122091BE063091BF0643E060E780916B
:10346000BD060E94A10C2091BE063091BF0640E02F
:1034700061E78091BD060E94A10C0091BE061091EB
:10348000BF0620E040E060E08091BD060E941D0E76
:103490002091BE063091BF0642E06FE18091BD06EB
:1034A0000E94A10C2091BE063091BF064CE961E25A
:1034B0008091BD060E94A10C2091BE063091BF06EE
:1034C00040E560E28091BD060E94A10C2091BE06FD
:1034D0003091BF0640E062E28091BD060E94A10CDF
:1034E0000091BE061091BF0621E046E06AE6809199
:1034F000BD060E941D0E0091BE061091BF0621E080
:1035000043E06AE68091BD060E941D0E0091BE0652
:103510001091BF0620E047E06AE68091BD060E9458
:103520001D0E8AE290E09093E9068093E8068DEB09
:1035300096E00E945B0EE090BE06F090BF0608EE9B
:1035400013E020EC36E041E06AE38091BD060E9482
:10355000BF0C80E080933D030E947F0D66E08833BE
:1035600008F067E72091BE063091BF064DEE58EF98
:103570008091BD060E948F0C0E947F0D68E0883309
:1035800008F06AE72091BE063091BF064CEA5BEF77
:103590008091BD060E948F0C0E947F0D6AE08833E7
:1035A00008F06DE72091BE063091BF0640EC53E075
:1035B0008091BD060E948F0C2091BE063091BF06FF
:1035C00048E450E063E18091BD060E948F0C209199
:1035D000BE063091BF0647EF5FEF65E18091BD0603
:1035E0000E948F0C2091BE063091BF0650E040E053
:1035F00067E18091BD060E948F0C80913D0381118F
:10360000EAC000E010E028EA31E44EEA57E461EA5B
:103610007EE38BE30E94060F0FEF1FEF2CEB32E4EB
:103620004EEA57E461EA7EE383E40E94060F0091CC
:10363000BE061091BF0621E047E06AE68091BD0614
:103640000E941D0E62E084E30E94100862E085E3A0
:103650000E94100880918100887F816080938100A2
:103660008091B100887F81608093B100809191004A
:10367000887F8160809391008091A100887F816024
:103680008093A10000E212E058E1E52E52E0F52E11
:1036900060E1A62E62E0B62E7EE3C72E73E0D72E41
:1036A000E8E28E2EE2E09E2ED8016C900E5F1F4F56
:1036B00061E0862D0E941008F7017080F2E0EF0EA5
:1036C000F11C61E0872D0E94100861E0862D0E94A8
:1036D000E20761E0872D0E9410086FE770E0872DF8
:1036E0000E944108D5016D917D915D01072E000C6E
:1036F000880B990B0E94DB222BED3FE049E450E45C
:103700000E94BF2320E030E044E353E40E943122D2
:10371000F60161937193819391936F0180169106E5
:1037200019F66090E8067090E90669A20E94040903
:103730001B012C015301BB240E94AA0D9C01A81659
:10374000B9060CF075C0893C91050CF449C08DEBAD
:1037500096E00E945B0E0E94AA0D9C01892B09F045
:103760006BC00E94040962197309840995090091CC
:10377000CE061091CF062091D0063091D1060617C3
:1037800017072807390738F72DEC3CEC4CE45FE3CA
:1037900060914E0370914F038091500390915103BB
:1037A0000E94BF236B017C011092AE031092AD0307
:1037B0008091AC03882309F4EDC28BE595E00E946B
:1037C0006806892B09F459C08BE595E00E944606EE
:1037D000F4CF81E0BFCE8FE492E00E94EA1132CFB5
:1037E0000E94AA0D9C01A816B90614F56C01CA180E
:1037F000DB084601F1E2CF16D1041CF040E2842E32
:10380000912C882099F0E090BE06F090BF0608EE5B
:1038100013E09E012F5F3F4F482D64E78091BD0666
:103820000E94BF0CC818D90821F7DACF1982FACF45
:103830002115310509F4A8CFA216B30609F421C356
:103840000E94040962197309840995090091CE0642
:103850001091CF062091D0063091D1060617170798
:103860002807390708F068CF8FCF10925E031BC37B
:103870006BED7FE089E490ECCDC46EEF70E08BE5FA
:1038800095E00E940B070E945B094B015C018BE5F0
:1038900095E00E9468060897BCF40E945B096819CD
:1038A00079098A099B09663071058105910578F3CC
:1038B0008EEB94E00E946806892B09F44AC08EEBD7
:1038C00094E00E944606F4CF8BE595E00E94460600
:1038D0008E3F910569F78BE595E00E9446064C0105
:1038E0008BE595E00E944606482E8BE595E00E9408
:1038F00046065C018BE595E00E944606582E8BE556
:1039000095E00E944606682E8BE595E00E944606EB
:10391000782E8BE595E00E94460699249092AB03A1
:103920008092AA03B694BA2CAA24B794A79420E84C
:10393000A222E894B7F8A428B092A903A092A80301
:1039400050929E0360929F037092A0038093A10304
:10395000AFCF6FEF70E08EEB94E00E940B070E94F8
:103960005B094B015C018EEB94E00E9468060597B1
:103970000CF09AC00E945B09681979098A099B09B1
:10398000663071058105910570F3C701B6010E948B
:10399000A32269A37AA38BA39CA38091AA039091ED
:1039A000AB03019709F0B4C08091A8039091A903DB
:1039B00049A15AA166E470E08C549F4F0E94941371
:1039C0006EE170E080E090E00E9429098AE692E0D2
:1039D0000E94EA11A7019601C701B6010E94CE24F8
:1039E000882309F445C180E792E00E94EA118CE740
:1039F00092E00E94EA118091A4039091A5030E9495
:103A00003B1287E892E00E94EA11809100029091B7
:103A100001020E943B1280E992E00E94EA1180912B
:103A2000AD039091AE030E943B1288E992E00E94A0
:103A3000EA118091AA039091AB030E943B128CE49F
:103A400092E00E94EA1185E30E94B907892B09F0F0
:103A500004C264E170E080E090E00E94290985E3FF
:103A60000E94B907892B09F0F8C11092A3031092A4
:103A7000A2031092AC0350E040E070E060E090E000
:103A800080E00E94941381EA92E00E946B1285E329
:103A90000E94B907892B09F0E0C16AE070E080E07C
:103AA00090E00E942909F3CF8EEB94E00E94460635
:103AB0008F3F910509F069CF8EEB94E00E94460696
:103AC0004C018EEB94E00E944606782E8EEB94E03B
:103AD0000E9446065C018EEB94E00E944606992403
:103AE0009092A7038092A603B694BA2CAA24B79406
:103AF000A794A0E8AA22E894B7F8A728B092A50353
:103B0000A092A403992790930102809300023DCFD5
:103B10008091A6039091A703019709F0A2C060913C
:103B2000A4037091A503653B71050CF07FC0072EBF
:103B3000000C880B990B0E94DB222B013C01609149
:103B4000000270910102072E000C880B990B0E9455
:103B5000DB229B01AC0164ED7FE18AE79FE30E94D9
:103B60002C24A30192010E94BF2320E030E040E614
:103B700050E40E94BF234B015C0120E030E044EBA5
:103B800052EC0E942C2287FD54C020E030E044EB30
:103B900052E4C501B4010E94B223181634F4812CFA
:103BA000912C94EBA92E92E4B92EA5019401C301A6
:103BB000B2010E944E212B013C0120E030E0A9011E
:103BC0000E94B2231816E4F520E030E040EF51E403
:103BD000C301B2010E942C2287FF3CC0E6E4F0E062
:103BE000F093AE03E093AD0320E030E0A901C30100
:103BF000B2010E942C2287FF0AC020E030E044EB93
:103C000053E4C301B2010E944E212B013C01A0905C
:103C1000AD03B090AE03C301B2010E94A322CB0159
:103C200049A15AA1B5010E949413D0CE68567140A3
:103C30007ECF812C912C84EBA82E82ECB82EB5CFB0
:103C400020E030E040EF51ECC301B2010E94B2230A
:103C5000181624F28CE390E09093AE038093AD03AA
:103C6000C3CF49A15AA170E060E090E080E0DBCFD3
:103C700046015701E894B7F82FEF3FEF4FE75FE7B2
:103C8000C501B4010E94CE2481110DC02FEF3FEF7A
:103C90004FE75FE7C501B4010E942C2218161CF4FF
:103CA00084E792E0A2CE2FEF3FEF4FE75FE4C7013A
:103CB000B6010E94B22318161CF488E792E095CE54
:103CC0002FEF3FEF4FE75FECC701B6010E942C22B8
:103CD00087FDF3CF20E030E0A901C701B6010E94C3
:103CE0002C2287FF09C06DE288EF95E00E94BE0696
:103CF000F7FAF094F7F8F0942AE037ED43EA5BE343
:103D0000C701B6010E944E214B015C010E94AA220C
:103D10006B017C010E94D9229B01AC01C501B40159
:103D20000E944D214B015C014AE0C701B6010E948F
:103D3000F7116EE288EF95E00E94BE0620E030E0C9
:103D400040E251E4C501B4010E94BF234B015C0174
:103D50000E94AA226B01F12CE12C4AE0C701B601B6
:103D60000E94F711C701B6010E94D9229B01AC0144
:103D7000C501B4010E944D2120E030E040E251E451
:103D80000E94BF230E94AA2290E080E04AE00E94A5
:103D9000F7112DCE84E30E94B907892B19F564E150
:103DA00070E080E090E00E94290984E30E94B90756
:103DB000892BC1F4A1E0B0E0B093A303A093A203C8
:103DC0001092AC038BEA92E00E946B1284E30E9493
:103DD000B907892B39F46AE070E080E090E00E9436
:103DE0002909F4CF8091A2039091A303019709F0D0
:103DF00041C020E030E040E752E4C701B6010E9434
:103E0000B22387FD0AC020E030E048E453E4C70154
:103E1000B6010E942C221816A4F420E030E040E7FE
:103E200052ECC701B6010E942C221816CCF020E0FB
:103E300030E048E453ECC701B6010E94B22387FD8D
:103E40000FC044E150E070E060E090E080E00E944C
:103E500094138DEB92E00E946B120E942D0761CCAF
:103E60001092A3031092A203B1E0B093AC038CECC8
:103E700092E0F1CF64E670E080E090E00E942909D2
:103E8000ECCFE9A1EE2309F4F0CCE090BE06F0906F
:103E9000BF0608EE13E02EE533E0462D64E780917F
:103EA000BD060E94BF0CA0906203B0906303BA24C9
:103EB000AB24BA24C0906603D0906703DC24CD24E1
:103EC000DC24E0906A03F0906B03FE24EF24FE24D0
:103ED00060915E0370915F03762767277627072E30
:103EE000000C880B990B0E94DB2220E030E040E8B8
:103EF00058E30E94BF232B013C014092AD06509233
:103F0000AE066092AF067092B006B501BB0C880B8E
:103F1000990B0E94DB2220E030E040E858E30E9449
:103F2000BF234B015C018092B1069092B206A09231
:103F3000B306B092B406B601DD0C880B990B0E9453
:103F4000DB2220E030E040E858E30E94BF2369A371
:103F50007AA38BA39CA36093B5067093B606809357
:103F6000B7069093B806B701FF0C880B990B0E9417
:103F7000DB2220E030E040E858E30E94BF236DA33D
:103F80007EA38FA398A76093B9067093BA06809317
:103F9000BB069093BC069B01AC01C501B4010E9415
:103FA000BF236B017C0129A13AA14BA15CA1C301F4
:103FB000B2010E94BF239B01AC01C701B6010E9460
:103FC0004D219B01AC010E944E2169AB7AAB8BABBA
:103FD0009CAB6093A1067093A2068093A306909376
:103FE000A406A5019401C301B2010E94BF236B0185
:103FF0007C012DA13EA14FA158A569A17AA18BA159
:104000009CA10E94BF239B01AC01C701B6010E9485
:104010004E219B01AC010E944E216DA77EA78FA768
:1040200098AB6093A5067093A6068093A70690931D
:10403000A806A3019201C301B2010E94BF236B0134
:104040007C01A5019401C501B4010E94BF239B011D
:10405000AC01C701B6010E944D216B017C0129A171
:104060003AA14BA15CA1CA01B9010E94BF239B01E7
:10407000AC01C701B6010E944D216B017C012DA14D
:104080003EA14FA158A5CA01B9010E94BF239B01BF
:10409000AC01C701B6010E944E2169A77AA78BA780
:1040A0009CA76093A9067093AA068093AB06909391
:1040B000AC06A3019201C301B2010E944E216B0123
:1040C0007C01A5019401C501B4010E944E216DAB94
:1040D0007EAB8FAB98AFA3019201C701B6010E94DE
:1040E000BF232B013C01A50194016DA97EA98FA9D5
:1040F00098AD0E94BF239B01AC01C301B2010E9495
:104100004E2120E030E040E85FE30E944D212B018A
:104110003C0129A13AA14BA15CA16DA97EA98FA95F
:1041200098AD0E94BF234B015C012DA13EA14FA180
:1041300058A5C701B6010E94BF239B01AC01C50170
:10414000B4010E944D21A30192010E94CD214B0197
:104150005C018092520390925303A0925403B09258
:1041600055032DA53EA54FA558A9CA01B9010E9426
:10417000BF236B017C0129A53AA54BA55CA5CA010B
:10418000B9010E94BF239B01AC01C701B6010E9487
:104190004E210E948A249B01AC0169A97AA98BA9AE
:1041A0009CA90E94CD216B017C01C0925603D09244
:1041B0005703E0925803F092590329A53AA54BA55D
:1041C0005CA56DA57EA58FA598A90E94CD216093C1
:1041D0005A0370935B0380935C0390935D0320E02C
:1041E00030E0A90169A57AA58BA59CA50E942C2287
:1041F00087FF1AC020E030E0A901C701B6010E9484
:10420000B223A701960118160CF032CB6BED7FE0BC
:1042100089E490E40E944D21609356037093570304
:10422000809358039093590320E030E044E353E433
:10423000C501B4010E94BF232BED3FE049E450E4E7
:104240000E94312260934E0370934F03809350037A
:104250009093510399CAA1E21A2EAA1BBB1BFD0120
:104260000DC0AA1FBB1FEE1FFF1FA217B307E40755
:10427000F50720F0A21BB30BE40BF50B661F771FAD
:10428000881F991F1A9469F760957095809590958D
:104290009B01AC01BD01CF0108955058BB27AA274F
:1042A0000E9465210C9478230E946A2338F00E94B2
:1042B000712320F039F49F3F19F426F40C94402325
:1042C0000EF4E095E7FB0C943A23E92F0E94892332
:1042D00058F3BA17620773078407950720F079F43B
:1042E000A6F50C94AB230EF4E0950B2EBA2FA02D5F
:1042F0000B01B90190010C01CA01A0011124FF2793
:10430000591B99F0593F50F4503E68F11A16F0408D
:10431000A22F232F342F4427585FF3CF469537958C
:104320002795A795F0405395C9F77EF41F16BA0B51
:10433000620B730B840BBAF09150A1F0FF0FBB1FFF
:10434000661F771F881FC2F70EC0BA0F621F731F48
:10435000841F48F4879577956795B795F7959E3FA5
:1043600008F0B0CF9395880F08F09927EE0F979536
:10437000879508950E946A2360F080E891E009F42F
:104380009EEF0E94712328F040E851E071F45EEF47
:104390000CC00C9440230C94AB23E92FE0780E94CE
:1043A000892340F3092E052AB1F32617370748075A
:1043B000590738F00E2E07F8E02569F0E025E06493
:1043C0000AC0EF6307F8009407FADB01B9019D0109
:1043D000DC01CA01AD01EF930E9448220E947823BC
:1043E0000E94FD215F91552339F02BED3FE049E418
:1043F00050FD49EC0C944E210895DF93DD27B92F31
:10440000BF7740E85FE31616170648075B0718F406
:10441000D92F0E94B7239F938F937F936F930E940E
:10442000CA24E4EEF0E00E9443230E9478232F91F7
:104430003F914F915F910E94D223DD2351F090581C
:10444000A2EA2AED3FE049EC5FE3D0785D270E94C5
:104450006521DF910C9478230E94162308F481E0F3
:1044600008950E9445220C9478230E94712358F0ED
:104470000E946A2340F029F45F3F29F00C943A230C
:1044800051110C94AC230C9440230E94892368F3AF
:104490009923B1F3552391F3951B550BBB27AA27FD
:1044A00062177307840738F09F5F5F4F220F331F37
:1044B000441FAA1FA9F335D00E2E3AF0E0E832D0FF
:1044C00091505040E695001CCAF72BD0FE2F29D002
:1044D000660F771F881FBB1F261737074807AB07D4
:1044E000B0E809F0BB0B802DBF01FF2793585F4F49
:1044F0003AF09E3F510578F00C943A230C94AC238B
:104500005F3FE4F3983ED4F3869577956795B7952A
:10451000F7959F5FC9F7880F911D9695879597F935
:104520000895E1E0660F771F881FBB1F62177307AE
:104530008407BA0720F0621B730B840BBA0BEE1FC3
:1045400088F7E09508950E94AA226894B1110C940E
:10455000AC2308950E94912388F09F5798F0B92FBB
:104560009927B751B0F0E1F0660F771F881F991FA8
:104570001AF0BA95C9F714C0B13091F00E94AB237C
:10458000B1E008950C94AB23672F782F8827B85F8C
:1045900039F0B93FCCF3869577956795B395D9F700
:1045A0003EF490958095709561957F4F8F4F9F4F0A
:1045B0000895E89409C097FB3EF490958095709516
:1045C00061957F4F8F4F9F4F9923A9F0F92F96E95F
:1045D000BB279395F695879577956795B795F111D4
:1045E000F8CFFAF4BB0F11F460FF1BC06F5F7F4F71
:1045F0008F4F9F4F16C0882311F096E911C0772383
:1046000021F09EE8872F762F05C0662371F096E88B
:10461000862F70E060E02AF09A95660F771F881F5A
:10462000DAF7880F9695879597F90895990F0008FE
:10463000550FAA0BE0E8FEEF16161706E807F90774
:10464000C0F012161306E407F50798F0621B730B0F
:10465000840B950B39F40A2661F0232B242B252B90
:1046600021F408950A2609F4A140A6958FEF811D33
:10467000811D089597F99F6780E870E060E00895D4
:104680009FEF80EC0895DF93CF931F930F93FF92DA
:10469000EF92DF927B018C01689406C0DA2EEF0165
:1046A0000E94D223FE01E894A59125913591459170
:1046B0005591A6F3EF010E946521FE019701A80123
:1046C000DA9469F7DF90EF90FF900F911F91CF91EF
:1046D000DF91089500240A94161617061806090695
:1046E000089500240A941216130614060506089568
:1046F000092E0394000C11F4882352F0BB0F40F4F0
:10470000BF2B11F460FF04C06F5F7F4F8F4F9F4F2F
:10471000089557FD9058440F551F59F05F3F71F0B1
:104720004795880F97FB991F61F09F3F79F0879518
:104730000895121613061406551FF2CF4695F1DFA1
:1047400008C0161617061806991FF1CF8695710531
:10475000610508940895E894BB2766277727CB0165
:1047600097F908950E94162308F48FEF08959B018E
:10477000AC0160E070E080E89FE30C9431220E947D
:10478000D2230C9478230E946A2338F00E9471236C
:1047900020F0952311F00C943A230C94402311241B
:1047A0000C94AC230E94892370F3959FC1F3950F5D
:1047B00050E0551F629FF001729FBB27F00DB11DA5
:1047C000639FAA27F00DB11DAA1F649F6627B00D35
:1047D000A11D661F829F2227B00DA11D621F739F1E
:1047E000B00DA11D621F839FA00D611D221F749F2C
:1047F0003327A00D611D231F849F600D211D822F73
:10480000762F6A2F11249F5750409AF0F1F0882399
:104810004AF0EE0FFF1FBB1F661F771F881F9150C6
:104820005040A9F79E3F510580F00C943A230C9418
:10483000AC235F3FE4F3983ED4F386957795679574
:10484000B795F795E7959F5FC1F7FE2B880F911DF0
:104850009695879597F90895FA01EE0FFF1F309608
:1048600021053105A1F16115710561F48038BFE3BF
:104870009B0749F168949038810561F08038BFEF5B
:104880009B0741F099234AF5FF3FE10531052105DA
:1048900019F1E8940894E795D901AA2329F4AB2FDC
:1048A000BE2FF85FD0F310C0FF5F70F4A695E0F75D
:1048B000F73950F019F0FF3A38F49F779F930DD0F5
:1048C0000F9007FC9058089546F00C94402360E048
:1048D00070E080E89FE308954FE79F775F934F93E1
:1048E0003F932F930E94A3252F913F914F915F916A
:1048F0000E94BF230C94DB249F930E9424250F90D9
:1049000007FCEE5F0C944D2519F416F40C9440232B
:104910000C940D250E949123B8F39923C9F3B6F3A3
:104920009F57550B87FF0E941B250024A0E640EAF5
:10493000900180585695979528F4805C660F771FF4
:10494000881F20F026173707480730F4621B730BC7
:10495000840B202931294A2BA695179407942025EA
:1049600031254A2758F7660F771F881F20F0261732
:104970003707480730F4620B730B840B200D311D91
:10498000411DA09581F7B901842F9158880F969504
:10499000879508959B01AC010C94BF230E941623B8
:1049A000880B990B089529F416F00C943A230C9473
:1049B000AB230C9440230E949123A8F39638A0F7D0
:1049C00007F80F92E8942BE33AEA48EB5FE70E947E
:1049D000D5230F920F920F924DB75EB70F920E94A0
:1049E000EB25E1E1F1E00E9443234F915F91EF91CC
:1049F000FF91E595EE1FFF1F49F0FE57E068442741
:104A0000EE0F441FFA95E1F74195550B0E9465257D
:104A10000F9007FE0C94B72308959F3F31F09150FB
:104A200020F4879577956795B795880F911D969592
:104A3000879597F9089591505040660F771F881F0A
:104A4000D2F708950C9440230E949123D8F3E89460
:104A5000E0E0BB279F57F0F02AED3FE049EC06C0AD
:104A6000EE0FBB0F661F771F881F28F0B23A620750
:104A70007307840728F0B25A620B730B840BE3951B
:104A80009A9572F7803830F49A95BB0F661F771F9E
:104A9000881FD2F790480C940F25EF93E0FF07C0D2
:104AA000A2EA2AED3FE049EC5FEB0E9465210E94FB
:104AB00078230F90039401FC9058E9E3F1E00C9403
:104AC0001F260C943A230C940D250E949123D8F3B1
:104AD0009923C9F3940F511DA3F39150504094F0C2
:104AE00059F0882332F0660F771F881F915050408D
:104AF000C1F79E3F51052CF7880F911D969587951C
:104B000097F908955F3FACF0983E9CF0BB278695DF
:104B100077956795B79508F4B1609395C1F7BB0F8A
:104B200058F711F460FFE8CF6F5F7F4F8F4F9F4FB3
:104B3000E3CF0C94AC2316F00C940D250C94402379
:104B400068940C943A230E949123A8F39923C1F30B
:104B5000AEF3DF93CF931F930F93FF92C92FDD27FF
:104B600088232AF02197660F771F881FDAF720E045
:104B700030E040E85FEB9FE3883920F0803E38F07A
:104B800021968F770E944E21E7E5F1E004C00E9454
:104B90004E21E4E8F1E00E9443238B01BE01EC01C9
:104BA000FB2E6F5771097595771F880B990B0E9423
:104BB000DB2228E132E741E35FE30E94D223AF2DFD
:104BC0009801AE01FF900F911F91CF91DF910E944C
:104BD00065210C947823FA01DC01AA0FBB1F9B010D
:104BE000AC01BF5728F4222733274427507820C030
:104BF000B75190F4AB2F0024469537952795011CAB
:104C0000A395D2F3002071F0220F331F441FB395F8
:104C1000DAF30ED00C944D2161307105A0E88A07BB
:104C2000B94630F49B01AC01662777278827907836
:104C3000309621F0208331834283538308959F93DC
:104C40008F937F936F93FF93EF939B01AC010E942F
:104C5000BF23EF91FF910E9443232F913F914F91EA
:104C60005F910C94BF2397FB072E16F4009407D096
:104C700077FD09D00E944F2607FC05D03EF49095A1
:104C800081959F4F0895709561957F4F0895EE0F20
:104C9000FF1F881F8BBF0790F691E02D1994AA1B68
:104CA000BB1B51E107C0AA1FBB1FA617B70710F017
:104CB000A61BB70B881F991F5A95A9F78095909549
:104CC000BC01CD0108950F931F93CF93DF938230E2
:104CD000910510F482E090E0E091EC06F091ED0691
:104CE00030E020E0B0E0A0E0309799F421153105E4
:104CF00009F44AC0281B390B24303105D8F58A81C4
:104D00009B816115710589F1FB0193838283FE010B
:104D100011C0408151810281138148175907E0F089
:104D20004817590799F4109761F012960C9312974F
:104D300013961C933296CF01DF91CF911F910F9163
:104D400008950093EC061093ED06F4CF211531057C
:104D500051F04217530738F0A901DB019A01BD0158
:104D6000DF01F801C1CFEF01F9CF9093ED068093F9
:104D7000EC06CDCFFE01E20FF31F819391932250F9
:104D8000310939832883D7CF2091EA063091EB0689
:104D9000232B41F420910402309105023093EB065D
:104DA0002093EA0620910202309103022115310579
:104DB00041F42DB73EB74091060250910702241BE3
:104DC000350BE091EA06F091EB06E217F307A0F449
:104DD0002E1B3F0B2817390778F0AC014E5F5F4F51
:104DE0002417350748F04E0F5F1F5093EB06409392
:104DF000EA06819391939FCFF0E0E0E09CCFCF93C0
:104E0000DF930097E9F0FC01329713821282A091A0
:104E1000EC06B091ED06ED0130E020E01097A1F432
:104E200020813181820F931F2091EA063091EB0699
:104E30002817390709F061C0F093EB06E093EA0602
:104E4000DF91CF910895EA01CE17DF07E8F54A8197
:104E50005B819E0141155105B1F7E901FB83EA83AE
:104E600049915991C40FD51FEC17FD0761F480815A
:104E700091810296840F951FE9019983888382812D
:104E800093819B838A83F0E0E0E012968D919C9160
:104E900013970097B9F52D913C911197CD0102968A
:104EA000820F931F2091EA063091EB0628173907ED
:104EB00039F6309751F51092ED061092EC06B0934A
:104EC000EB06A093EA06BCCFD383C2834081518115
:104ED000840F951FC817D90761F44E5F5F4F888113
:104EE0009981480F591F518340838A819B81938305
:104EF00082832115310509F0B0CFF093ED06E093E0
:104F0000EC069ECFFD01DC01C0CF13821282D7CF09
:104F1000FB01DC0104C08D910190801921F4415006
:0E4F20005040C8F7881B990B0895F894FFCFF6
:104F2E00FF000000EE06800001000100FFFFFFFF02
:104F3E002D008700E1003B0102000800050009007A
:104F4E00040006000300070000000000BE06F10585
:104F5E0037060D07680646065A06000000001C0CB0
:104F6E00EF0B4B0CC50BE80BD50BC60B0D0A004413
:104F7E004D5020496E697469616C697A6174696F0C
:104F8E006E206661696C65642E004779726F3A0017
:104F9E006E616E00696E66006F766600207C204939
:104FAE00525F416E673A00207C20446973743A0068
:104FBE00207C205370643A00207C204C696E653A48
:104FCE000047616D652053746F7000537461727485
:104FDE002053657175656E63652E2E2E00537461B8
:104FEE0062696C697A696E672E2E2E00474F2120FA
:0C4FFE0047616D652053746172742100DE
:00000001FF
