:020000040000FA
:100000000C9495050C94C6050C94C6050C94C60575
:100010000C94C6050C94C6050C94C6050C94C60534
:100020000C94C6050C94C6050C94C6050C94C60524
:100030000C94C6050C94C6050C94C6050C94C60514
:100040000C94C6050C94C6050C94C6050C94C60504
:100050000C94C6050C94C6050C94C6050C940717A1
:100060000C94C6050C94DD160C94B3160C94C605BE
:100070000C94C6050C94C6050C94C6050C94C605D4
:100080000C94C6050C94C6050C94C6050C94C605C4
:100090000C9489160C945F160C94C6050C94511799
:1000A0000C94C6050C94C6050C94C6050C94C605A4
:1000B0000C94C6050C94C6050C94C6050C94C60594
:1000C0000C94C6050C94C6050C94C6050C94351604
:1000D0000C940B160C94C6050C94E1150C94B715F2
:1000E0000C94C605084AD73B3BCE016E84BCBFFDCD
:1000F000C12F3D6C74319ABD56833DDA3D00C77FF8
:1001000011BED9E4BB4C3E916BAAAABE0000008090
:100110003F07634236B79BD8A71A39685618AEBA5C
:10012000AB558C1D3CB7CC5763BD6DEDFD753EF6F0
:10013000177231BF000000803F05A84CCDB2D44EED
:10014000B93836A9020C50B9918688083CA6AAAAEB
:100150002ABE000000803F08000000BE9224491221
:100160003EABAAAA2ABECDCCCC4C3E00000080BE3D
:10017000ABAAAAAA3E00000000BF000000803F001A
:1001800000000000084178D3BB4387D1133D190E0E
:100190003CC3BD4282AD2B3E68EC8276BED98FE176
:1001A000A93E4C80EFFFBE01C4FF7F3F000000006E
:1001B00000000C9476070C947A070C941C0C0C9499
:1001C000C50B0C940D070C9478080C94EF0B0C9451
:1001D0008B070C94A6080C94EF050C94F1080C9472
:1001E000F0050C94C60B0C9482070C9469080C94CF
:1001F000DD080C949D070C94B0070C94B0080C9487
:1002000099070C94AB070C94E80B0C9482080C949F
:10021000FB080C948F070C9437060C944B0C0C9431
:10022000D3080C9495070C945A060C946E080C9401
:10023000E7080C94D50B0C94C9080C947E070C9419
:10024000F1050C94B1070C9494080C9446060C9498
:10025000B5070C949C080C94BA080C9468060C948E
:10026000A7070C9485070C9475180C948C080C94B3
:10027000BE060C94A3070C9470070C94640800004D
:100280002100240027002A002D0030003300010146
:100290000000040107010A010000220025002800D7
:1002A0002B002E003100340002010000050108017E
:1002B0000B01000020002300260029002C002F0045
:1002C00032000001000003010601090105050505D2
:1002D000070508080808020202020A0A08080404BE
:1002E00004040101010101010101030303030303EC
:1002F0000303040707070C0C0C0C0C0C0C0C02027B
:10030000020206060606060606060B0B0B0B0B0B77
:100310000B0B010210202008081020401020408004
:1003200002010201080402010102040810204080B9
:100330008040201008040201800402018040201047
:100340000804020108040201010204081020408090
:10035000010204081020408000000A0B02090C0D65
:100360000E08070304010000000000000000000068
:10037000000000000000000000000000000000007D
:10038000000000001211100000000000000000003A
:100390000000000000000000000000000000FB0062
:1003A000003E000B00360001000200030000006563
:1003B0000054FFEF0000FA80000B128200010002DF
:1003C0000000000000000000000000000000002805
:1003D0000000FFFF4581FFFFFA72000000000000EF
:1003E00003E80000000100017FFFFFFE8001001B09
:1003F00000000000000000000000000000000040BD
:1004000000004000000002CB47A2200000002000B6
:10041000000000000000400000006000000041FFFC
:10042000000000000B2A0000165500002182FD8705
:100430002650FD800000001F000000058000000025
:100440000000000100000002000000030000400066
:1004500000000000046F0002653200005EC0400032
:100460000000000000000000000000000000FB8C05
:100470006F5DFD5D08D9007C733B006C12CC3200CF
:10048000139D3200D0D632000800400001F4FFE690
:100490008079020000000000D0D600002710FB0089
:1004A000000040000000000000000000000000000C
:1004B0000001000000000000010001000000000039
:1004C000FA36FFBC308E0005FBF0FFD95BC8FFD0C9
:1004D0009ABE000010A9FFF41EB200CEBBF70000C8
:1004E000000100000004000200020200000CFFC234
:1004F00080000001800000CF80004000000000006C
:1005000000000000000000000600000000140000D1
:1005100000000000000000000000000000000000DB
:10052000000000000000000000000000000009239F
:10053000A1350000000000000000000000000000E5
:100540000000033F68B6793528BCC67ED16C8000B8
:10055000FFFF400000000000B26A00000000000041
:1005600000000000000000003FF00000003000002C
:10057000000000000000000000000000000000007B
:10058000000000000000000000000000400000002B
:10059000254D002F706D000005AE000C02D000004C
:1005A000000000650054FFEF0000000000000000A4
:1005B00001000044000100058BC1000001000000A3
:1005C00000000065000000540000FFEF0000000084
:1005D000000000000000000000000000000000001B
:1005E000000000000000000000000000000000000B
:1005F00000000000000000000000000000000000FB
:1006000000010000000200000000000000000000E7
:1006100000000000000000000000000000000000DA
:100620000000000000000000000000000000001BAF
:1006300000000000000000000000000000000000BA
:1006400000000000000000000000000000000000AA
:100650000000000000000000000000000000001B7F
:10066000000000000000000000000000000000008A
:10067000000000000000000000000000000000007A
:10068000000000000000000000000000000000006A
:100690000000000000000000000000000000D8DCA6
:1006A000BAA2F1DEB2B8B4A88191F74A907F916AFC
:1006B000F3F9DBA8F9B0BAA080F2CE81F3C2F1C1A0
:1006C000F2C3F3CCA2B280F1C6D880BAA7DFDFDFD5
:1006D000F2A7C3CBC5B6F087A2942448703C9540DE
:1006E0006834589B78A2F183922D557DD8B1B4B867
:1006F000A1D09180F270F370F27C80A8F101B098E3
:1007000087D943D886C988BAA1F20EB89780F1A9D3
:10071000DFDFDFAADFDFDFF2AA4CCD6CA90CC92C2A
:1007200097979797F1A989264666B0B4BA80ACDE50
:10073000F2CAF1B28C02A9B69800890E161EB8A9A9
:10074000B4992C547CB08AA896365676F1B9AFB4D9
:10075000B083C0B8A89711B18F98B9AFF0240844FE
:10076000106418F1A329557DAF83B593AFF000282D
:1007700050F1A3869F61A6DADEDFD9FAA38696DB65
:1007800031A6D9F8DFBAA68FC2C5C7B28CC1B8A24C
:10079000DFDFDFA3DFDFDFD8D8F1B8A8B286B498F7
:1007A0000D355DB8AA98B0872D353DB2B6BAAF8C7D
:1007B00096198F9FA70E161EB49AB8AA872C547C40
:1007C000B9A3DEDFDFA3B180F2C4CDC9F1B8A9B40B
:1007D00099830D355D89B9A32D557DB593A30E166B
:1007E0001EA92C547CB8B4B0F19783A81184A50934
:1007F00098A383F0DA240844106418D8F1A5295589
:100800007DA58595021A2E3A565A4048F9F3A3D988
:10081000F8F098832408441064189782A8F111F026
:1008200098A2240844106418DAF3DED883A5940152
:10083000D9A302F1A2C3C5C7D8F18492A24DDA2A86
:10084000D84869D92AD86855DA32D85071D932D8FF
:10085000705DDA3AD85879D93AD87893A34DDA2A24
:10086000D84869D92AD86855DA32D85071D932D8DF
:10087000705DDA3AD85879D93AD878A88A9AF028A7
:1008800050789EF38818F19F1D98A8D908D8C89F62
:10089000129EF315A8DA1210D8F1AFC8978734B5B5
:1008A000B994A421F3D922D8F22DF3D92AD8F2355C
:1008B000F3D932D881A4606061D961D86C6869D9F4
:1008C00069D8747071D971D8B1A384193D5DA383BF
:1008D0001A3E5E931030811011B8B0AF8F94F2DAE7
:1008E0003ED8B49AA88729DAF8D8879A35DAF8D8A2
:1008F000879A3DDAF8D8B1B9A49885022E56A58119
:10090000000C14A397B08AF12DD928D84DD948D816
:100910006DD968D8B1840DDA0ED8A32983DA2C0EEC
:10092000D8A3844983DA2C4C0ED8B8B0A88A9AF59B
:1009300020AADADFD8A840AAD0DADED8A860AADADE
:10094000D0DFD8F19786A8319B069907AB97288806
:100950009BF00C201440B8B0B4A88C9CF004285133
:10096000791D301438B282ABD0982C505078789BD7
:10097000F11AB0F08A9CA82951798B2951798A24DF
:1009800070598B2058718A4469388B3940688A6461
:1009900048318B304960A588200971584468113965
:1009A00064493019F1AC002C547CF08CA804285018
:1009B00078F1889726A85998AC8C02264666F0896B
:1009C0009CA8295179247059446938644831A98810
:1009D00009205970AB11384069A8193148608CA8BA
:1009E0003C415C207C00F187981986A86E767EA930
:1009F00099882D557D9EB9A38A228A6E8A568A5E71
:100A00009FB183062646660E2E4E6E9DB8AD002C15
:100A1000547CF2B18CB499B9A32D557D8191AC3839
:100A2000AD3AB58391AC2DD928D84DD948D86DD9D8
:100A300068D88C9DAE29D904AED851D904AED879E6
:100A4000D904D881F39DAD008DAE1981ADD901D8FF
:100A5000F2AEDA26D88E912983A7D9ADADADADF32C
:100A60002AD8D8F1B0AC89913E5E76F3AC2E2EF147
:100A7000B18C5A9CAC2C2828289CAC3018A89881A2
:100A800028343C9724A728343C9C24F2B089AC91AC
:100A90002C4C6C8A9B2DD9D8D851D9D8D879D9D893
:100AA000D8F19E88A331DAD8D8912DD928D84DD93C
:100AB00048D86DD968D8B18393353D8025DAD8D828
:100AC0008569DAD8D8B49381A328343CF3AB8BF88A
:100AD000A391B609B4D9ABDEFAB0879CB9A3DDF116
:100AE000202830389AF12830389DF1A3A3A3A3F22F
:100AF000A3B49080F2A3A3A3A3A3A3A3A3A3A3B28D
:100B0000A3A3A3A3A3A3B087B599F128303898F184
:100B1000A3A3A3A397A3A3A3A3F39BA330DCB9A789
:100B2000F1262626FED8FF00751811241FBECFEF30
:100B3000D1E2DEBFCDBF00E00CBF12E0A0E0B2E02A
:100B4000EAEDFFE400E00BBF02C007900D92A23B6C
:100B5000B107D9F726E0A2EBB2E001C01D92A63C96
:100B6000B207E1F715E0C5E9D5E000E006C021973E
:100B70000109802FFE010E949D26C439D10780E023
:100B80000807A9F70E9452190C94EB270C94000057
:100B9000FC01A089B18982E08C93A485B5851C9263
:100BA000A685B78580E18C93108EA489B58986E0EF
:100BB0008C93A289B3898C9180618C93A289B3892B
:100BC0008C9188608C93A289B3898C9180688C9376
:100BD0000288F389E02D80818F7D808308950895B8
:100BE0000895AF92BF92CF92DF92EF92FF920F9350
:100BF0001F93CF93DF936C017B018B01040F151FB3
:100C0000EB015E01AE18BF08C017D10759F069911A
:100C1000D601ED91FC910190F081E02DC60119956E
:100C2000892B79F7C501DF91CF911F910F91FF902B
:100C3000EF90DF90CF90BF90AF900895FC01A08916
:100C4000B1898C91A689B78982FD0FC09C91818D55
:100C50008F5F8F73228D821749F0A18DAE0FBF2F4A
:100C6000B11D5D969C93818F08958C910895FC0130
:100C7000538D448D252F30E0842F90E0821B930B01
:100C8000541710F0CF96089501970895FC01918DA7
:100C9000828D981761F0A28DAE0FBF2FB11D5D96AA
:100CA0008C91928D9F5F9F73928F90E008958FEF4C
:100CB0009FEF0895FC01918D828D981731F0828D00
:100CC000E80FF11D858D90E008958FEF9FEF089557
:100CD000FC01918D228D892F90E0805C9F4F821BBB
:100CE00091098F739927089589EF93E00E94680610
:100CF00021E0892B09F420E0822F089586E994E011
:100D00000E94680621E0892B09F420E0822F0895D3
:100D100083E395E00E94680621E0892B09F420E036
:100D2000822F089580ED95E00E94680621E0892BCE
:100D300009F420E0822F0895FC01A48DA80FB92F9B
:100D4000B11DA35ABF4F2C91848D90E001968F73F3
:100D50009927848FA689B7892C93A089B1898C9112
:100D6000837080648C93938D848D981306C0028861
:100D7000F389E02D80818F7D80830895EF92FF922B
:100D80000F931F93CF93DF93EC0181E0888F9B8DAE
:100D90008C8D98131AC0E889F989808185FF15C068
:100DA0009FB7F894EE89FF896083E889F98980818B
:100DB0008370806480839FBF81E090E0DF91CF915A
:100DC0001F910F91FF90EF900895F62E0B8D10E07C
:100DD0000F5F1F4F0F731127E02E8C8D8E110CC0EB
:100DE0000FB607FCFACFE889F989808185FFF5CF36
:100DF000CE010E949C06F1CFEB8DEC0FFD2FF11D73
:100E0000E35AFF4FF0829FB7F8940B8FEA89FB8972
:100E100080818062CFCF0C94BE06CF93DF93EC012C
:100E2000888D8823B9F0AA89BB89E889F9898C91D2
:100E300085FD03C0808186FD0DC00FB607FCF7CF8E
:100E40008C9185FFF2CF808185FFEDCFCE010E948E
:100E50009C06E9CFDF91CF91089580E090E0892B47
:100E600029F00E94920681110E94000080E090E02B
:100E7000892B29F00E94880681110E94000080E0E1
:100E800090E0892B29F00E947E0681110E940000CB
:100E900080E090E0892B29F00E94740681110C9467
:100EA000000008958150823108F05AC0E82FF0E028
:100EB0008827E25AF84F8F4F0C949D267E078207B1
:100EC000700776077A07B00785078B078F079507A6
:100ED00099079D07A307A707B007AB07B107B50799
:100EE000809180008F7780938000089580918000AA
:100EF0008F7DF9CF80918000877FF5CF84B58F7784
:100F000084BD089584B58F7DFBCF8091B0008F772D
:100F10008093B00008958091B0008F7DF9CF8091CB
:100F200090008F77809390000895809190008F7D3E
:100F3000F9CF80919000877FF5CF8091A0008F77C7
:100F40008093A00008958091A0008F7DF9CF8091BB
:100F5000A000877FF5CF809120018F7780932001BB
:100F60000895809120018F7DF9CF80912001877FA6
:100F7000F5CFCF93DF93282F30E0F901E85AFC4FEB
:100F80008491F901EE5EFC4FD491F901E453FD4FD9
:100F9000C491CC23A1F081110E945207EC2FF0E004
:100FA000EE0FFF1FEE54FD4FA591B491EC91ED2390
:100FB00081E090E009F480E0DF91CF91089580E036
:100FC00090E0FACF1F93CF93DF93282F30E0F90101
:100FD000E85AFC4F8491F901EE5EFC4FD491F9017F
:100FE000E453FD4FC491CC23A9F0162F81110E9428
:100FF0005207EC2FF0E0EE0FFF1FE856FD4FA591D2
:10100000B4918FB7F894EC91111108C0D095DE23FC
:10101000DC938FBFDF91CF911F910895DE2BF8CF26
:10102000CF93DF9390E0FC01EE5EFC4F249184535C
:101030009D4FFC0184918823D1F090E0880F991F87
:10104000FC01E258FD4FA591B491FC01E856FD4F1B
:10105000C591D491623071F49FB7F8943C91822F7E
:10106000809583238C93E8812E2B28839FBFDF916B
:10107000CF9108958FB7F894EC912E2B2C938FBFBE
:10108000F6CF982FE82FF0E0E85AFC4FE491E150BA
:10109000E23108F0B0C0F0E08827EE5AF74F8F4FEA
:1010A0000C949D26640869086E0878088208FB087D
:1010B0008C0894089C08A608B008BA08C908D30888
:1010C000FB08DD08E708F10884B5806884BD67BDCA
:1010D000089584B5806284BD68BD089580918000C4
:1010E00080688093800070938900609388000895E1
:1010F0008091800080628093800070938B00609369
:101100008A000895809180008860809380007093A9
:101110008D0060938C0008958091B000806880936A
:10112000B0006093B30008958091B0008062809316
:10113000B0006093B400089580919000806880931F
:1011400090007093990060939800089580919000AA
:1011500080628093900070939B0060939A00089542
:101160008091900088608093900070939D006093C0
:101170009C0008958091A00080688093A0008091D9
:10118000A0008F7B8093A0007093A9006093A800BB
:1011900008958091A00080628093A0007093AB00BE
:1011A0006093AA0008958091A00088608093A000B9
:1011B0007093AD006093AC00089580912001806829
:1011C00080932001709329016093280108958091F4
:1011D000200180628093200170932B0160932A018B
:1011E00008958091200188608093200170932D01E3
:1011F00060932C0108956038710524F460E0892F14
:101200000C94E20761E0FBCF3FB7F89480910B03A9
:1012100090910C03A0910D03B0910E0326B5A89BED
:1012200005C02F3F19F00196A11DB11D3FBFBA2F78
:10123000A92F982F8827BC01CD01620F711D811D38
:10124000911D42E0660F771F881F991F4A95D1F7BD
:1012500008958F929F92AF92BF92CF92DF92EF92BA
:10126000FF924B015C010E9404096B017C010E940A
:1012700004096C197D098E099F09683E7340810538
:101280009105A8F321E0821A9108A108B10888EE1F
:10129000C80E83E0D81EE11CF11C81149104A10446
:1012A000B10429F7FF90EF90DF90CF90BF90AF90FF
:1012B0009F908F9008952FB7F894609107037091D5
:1012C00008038091090390910A032FBF089520918C
:1012D000E302260F3327331F21323105ECF420912E
:1012E000CF03FC0190E080E0243069F082E00895B3
:1012F000A091E3022191AC014D535D4FA40FB52F96
:10130000B11D2C930196861798F38091E302680F24
:101310006093E30280E0089581E008951092CF0386
:1013200081E08093CE031092A90361E084E10E94E2
:10133000E20761E085E10E94E207E9EBF0E08081ED
:101340008E7F808380818D7F808388E48093B80046
:1013500085E48093BC000895CF93DF9391E0909350
:10136000C2028823B9F0C091B800D091BA00809130
:10137000BC008A7B8093BC0060E084E10E94E207AD
:1013800060E085E10E94E2070E948E09D093BA00D6
:10139000C093B800DF91CF9108958F929F92AF9242
:1013A000BF92CF92DF92EF92FF920F931F93CF9352
:1013B000DF93D091F803D13208F0D7C0182FC09135
:1013C000F7030E9404096B017C018091CF03811116
:1013D0006BC082E08093CF031093CE038FEF809396
:1013E000CD031092CC03D093CB03A7EDB3E0EBEA8F
:1013F000F3E080E0D81391C01092AA038091AA0371
:10140000CC0FC82BC093AA038091A903813009F0A7
:1014100088C01092A9030E9404096B017C0180918D
:10142000AA038093BB008091D1039091D203A09135
:10143000D303B091D403892B8A2B8B2BA1F00E946C
:1014400004090091D1031091D2032091D30330916C
:10145000D4036C197D098E099F0906171707280701
:10146000390708F442C08091BC0083FDD8CF85ECD9
:101470008093BC000E9404096B017C018091CF0322
:10148000823009F450C08091CD038F3F09F46FC0C2
:101490008091CD03803209F46CC08091CD038033FC
:1014A00009F469C084E026C08091D1039091D203F1
:1014B000A091D303B091D403892B8A2B8B2B09F4F1
:1014C00084CF0E9404098090D1039090D203A09011
:1014D000D303B090D4036C197D098E099F09861639
:1014E0009706A806B90608F070CF8091D0030E9435
:1014F000AC0985E01092D6031092F8031092D50340
:10150000DF91CF911F910F91FF90EF90DF90CF90DF
:10151000BF90AF909F908F9008959D9191938F5F12
:1015200069CF85EEA5CF8091D1039091D203A09190
:10153000D303B091D403892B8A2B8B2B09F49ECF34
:101540000E9404090091D1031091D2032091D3038A
:101550003091D4036C197D098E099F09061717076E
:101560002807390708F08ACFC0CF81E0C3CF80E0D9
:10157000C1CF82E0BFCF83E0BDCF0F931F93CF9346
:10158000DF938A01E901209711F4CDE6D6E091E0DE
:101590009093D5038093F7031092D6031092F8032B
:1015A000E881F9810190F081E02DCE011995D801F3
:1015B00011966C91E881F9810190F081E02DCE01C6
:1015C0001995E881F9810190F081E02DD8016C91A5
:1015D000CE01199581E00E94CD0991E0811190E042
:1015E000892FDF91CF911F910F910895CF92DF92B4
:1015F000EF92FF920F931F93CF93DF93D82FC62FB5
:10160000613208F098C00E9404096B017C0180914E
:10161000CF0381116BC081E08093CF038093CE0311
:101620009FEF9093CD031092CC039C0F9093CB032C
:101630008093AA038091AA03DD0FD82BD093AA032D
:101640008091A903813009F078C01092A9030E940B
:1016500004096B017C018091AA038093BB008091F7
:10166000D1039091D203A091D303B091D403892BDD
:101670008A2B8B2BA1F00E9404090091D1031091B9
:10168000D2032091D3033091D4036C197D098E09C4
:101690009F09061717072807390708F448C08091E3
:1016A000BC0083FDD8CF85EC8093BC000E94040968
:1016B0006B017C018091CF03813009F440C080919F
:1016C000CC038C1710F4C091CC03EBEAF3E0A9E84B
:1016D000B3E080E08C1355C08C2FDF91CF911F9128
:1016E0000F91FF90EF90DF90CF9008958091D103FC
:1016F0009091D203A091D303B091D403892B8A2B6C
:101700008B2B09F484CF0E9404090091D10310911E
:10171000D2032091D3033091D4036C197D098E0933
:101720009F09061717072807390708F070CF80911F
:10173000D0030E94AC09C0E0CFCF85EEB5CF809139
:10174000D1039091D203A091D303B091D403892BFC
:101750008A2B8B2B09F4AECF0E9404090091D10390
:101760001091D2032091D3033091D4036C197D09D9
:101770008E099F09061717072807390708F09ACF1F
:10178000D6CF91919D938F5FA5CF0895E091880367
:1017900080918703E81730F4F0E0E757FC4F808131
:1017A00090E008958FEF9FEF0895909188038091C6
:1017B00087032FEF3FEF981748F4E92FF0E0E75742
:1017C000FC4F208130E09F5F90938803C90108950A
:1017D0008091870390918803891B990B0895CF927C
:1017E000DF92EF92FF920F931F93CF93DF937C01D1
:1017F000CB018A012091D503222389F0EB016B01F3
:10180000C40ED51ECC15DD0569F06991D701ED91A7
:10181000FC910190F081E02DC7011995F3CF642F61
:101820000E946709C801DF91CF911F910F91FF902E
:10183000EF90DF90CF900895CF93DF931F92CDB7B5
:10184000DEB769832091D5032223F9F02091F803B4
:10185000203258F021E030E0FC013383228390E015
:1018600080E00F90DF91CF9108958091D603E82F0B
:10187000F0E0E952FC4F998190838F5F8093D6030B
:101880008093F80381E090E0ECCF61E0CE01019617
:101890000E946709F7CF90E080E00895DF92EF9211
:1018A000FF920F931F93CF93DF93E42ED22EF32E4C
:1018B000E801209711F4CDE6D6E091E09093D503AE
:1018C0008093F7031092D6031092F803E881F98110
:1018D0000190F081E02DCE0119950D2D1F2DE00E08
:1018E000F12EF11C0E151F0559F0F80161918F01C1
:1018F000E881F9810190F081E02DCE011995F2CFB8
:1019000081E00E94CD0991E0811190E0892FDF9163
:10191000CF911F910F91FF90EF90DF900895CF939B
:10192000DF931F921F92CDB7DEB75A834983AE0172
:101930004F5F5F4F0E94BD0A0F900F90DF91CF91D4
:1019400008950F931F93CF93DF931F92CDB7DEB708
:10195000498389019E012F5F3F4F41E00E944E0C59
:101960000F90DF91CF911F910F910895E5E9F6E077
:1019700021813281482F6EE680810C94A10C2F9238
:101980003F924F925F926F927F928F929F92AF920F
:10199000BF92CF92DF92EF92FF920F931F93CF935C
:1019A000DF9300D000D0CDB7DEB789836A83D42E11
:1019B0003C832B83FE82ED820E945B094B015C011C
:1019C000ED80FE80EF2821F48DE696E09E838D83E6
:1019D000F12CE12CC12C2D2C312C2801712C612CE7
:1019E000E214F3040CF05DC091E09093D503A9815B
:1019F000A093F7031092D6031092F803AD81BE8135
:101A0000ED91FC9111970190F081E02D6A81CD015B
:101A1000199581E00E94CD09B1016E197F096132EB
:101A2000710514F060E270E0613208F060E28981D3
:101A30000E94F60A1092880380938703AD81BE81CD
:101A4000ED91FC9111970084F185E02DCD01199560
:101A5000892BF9F00115110589F4AD81BE81ED9155
:101A6000FC9111970284F385E02DCD011995EB814E
:101A7000FC81EC0DF11D8083C394E0CF0E945B09D3
:101A8000681979098A099B09641575058605970502
:101A900020F38D2DB0E2BD1508F480E2E80EF11CB4
:101AA0009FCF0115110589F00E945B09681979091A
:101AB0008A099B0930E020E06017710782079307CD
:101AC00020F0CD1410F4CC24CA948C2D26960FB699
:101AD000F894DEBF0FBECDBFDF91CF911F910F9164
:101AE000FF90EF90DF90CF90BF90AF909F908F903E
:101AF0007F906F905F904F903F902F900895EF925E
:101B0000FF920F931F93CF93DF931F92CDB7DEB752
:101B1000E0909606F090970608EE13E09E012F5F86
:101B20003F4F41E065E7809195060E94BF0C8823F6
:101B300039F089818E7790E0959587958093980606
:101B4000809198060F90DF91CF911F910F91FF9098
:101B5000EF900895EF92FF920F931F93CF93DF932F
:101B6000C5E9D6E0E980FA8008EE13E028E936E01E
:101B700042E062E788810E94BF0C8B819C8198279C
:101B800089279827DF91CF911F910F91FF90EF90B8
:101B900008957F928F929F92AF92BF92CF92DF92E1
:101BA000EF92FF920F931F93CF93DF931F92CDB7C6
:101BB000DEB7A82E962E742E822EB02E08EE13E0DD
:101BC0009E012F5F3F4F41E00E94BF0C882399F197
:101BD000872D8819990BAC014F5F5F4F81E090E032
:101BE00002C0880F991F8A94E2F70197042E01C062
:101BF000880F0A94EAF72B2D01C0220F4A95EAF7C5
:101C0000482F4095B9804B218223482B4983970167
:101C1000692D8A2D0E94A10C0F90DF91CF911F9109
:101C20000F91FF90EF90DF90CF90BF90AF909F907B
:101C30008F907F90089580E0EFCF8F929F92AF9228
:101C4000BF92CF92DF92EF92FF920F931F93CF93A9
:101C5000DF931F92CDB7DEB7B82EA62E842E922E1C
:101C60006801780108EE13E09E012F5F3F4F41E0CD
:101C70000E94BF0C81E090E001C0880F8A94EAF7CF
:101C800049819920A9F0482B498396016A2D8B2D13
:101C90000E94A10C0F90DF91CF911F910F91FF90A7
:101CA000EF90DF90CF90BF90AF909F908F9008956E
:101CB00080954823E9CF0F931F93FC010181128186
:101CC00021E042E06AE680810E941D0E1F910F9183
:101CD00008953F924F925F926F927F928F929F9260
:101CE000AF92BF92CF92DF92EF92FF920F931F932A
:101CF000CF93DF93782E662E6A017901E8010E9466
:101D00005B094B015C01209711F4CDE6D6E081E040
:101D10008093D5037092F7031092D6031092F803C4
:101D2000E881F9810190F081E02D662DCE011995B1
:101D300081E00E94CD0962E0872D0E94F60A109290
:101D400088038093870301E010E02701712C612C48
:101D500033243394E881F9810084F185E02DCE01AC
:101D60001995892BE9F111113BC0E114F104C9F473
:101D7000E881F9810284F385E02D01110CC0CE01C8
:101D80001995F60120813181822B932B91838083D9
:101D900011E00325DFCFCE011995F6011082818372
:101DA000F8CF0E945B09681979098A099B096415B3
:101DB000750586059705E0F20E945B09AB01BC0141
:101DC000481959096A097B09C701B0E0A0E0481722
:101DD00059076A077B0738F0111105C01FEF03C0D0
:101DE000E114F10449F7812FDF91CF911F910F91F9
:101DF000FF90EF90DF90CF90BF90AF909F908F902B
:101E00007F906F905F904F903F9008952F923F92F8
:101E10004F925F926F927F928F929F92AF92BF92FA
:101E2000CF92DF92EF92FF920F931F93CF93DF93A6
:101E3000CDB7DEB7E7970FB6F894DEBF0FBECDBFC4
:101E40008F8F48A759A76AA77BA70CA71DA72EA706
:101E50003FA78B3309F047C20E947F0D883308F4F7
:101E6000B4C297E79F8BA3E0AA8FE0909606F0900C
:101E7000970608EE13E09E012F5F3F4F41E06CE1B3
:101E8000809195060E94BF0C882351F0898188714A
:101E900090E023E0959587952A95E1F78093980641
:101EA00080919806E12C10E8F12E00E010E004C0CB
:101EB00015950795F794E7948A95D2F76EE370E04D
:101EC00080ED95E00E940B07CE010D969E8B8D8BC9
:101ED000DE011196B98FA88F6C01BF88009196061C
:101EE0001091970628EE33E0AE014D5E5F4F6B2DEB
:101EF000809195060E94690E8B889C88B401092CFC
:101F0000000C880B990B0E948821FF89F33109F49A
:101F1000F2C121E082229924D6018D929C9220E088
:101F200030E040E051E40E94E721E88DF98D6083C4
:101F3000718382839383BA8DBB0EE2E0CE0ED11CF7
:101F4000288D398D2C5F3F4F398F288F8D899E8941
:101F50002817390719F69F8D9B3309F0DAC18DECEC
:101F60009CECACE4BDE388AB99ABAAABBBABA6E001
:101F7000B0E0BFA3AEA3C701B0E0A0E08CAB9DABC7
:101F8000AEABBFAB19A218A2312C212CDE011196E9
:101F9000BC8FAB8FFE013D96FBA3EAA3FF89FCA398
:101FA0002F8D2DA3812C912C54011E8E1D8E0091FE
:101FB00096061091970628EE33E0AE014D5E5F4F16
:101FC0006DA1809195060E94690E6B897C89072E10
:101FD000000C880B990B0E9488216B017C013F8DBE
:101FE0003B3391F48D8D9E8D029771F46CA97DA980
:101FF0008EA99FA90E9486219B01AC01C701B60151
:102000000E94C7226B017C012601370177FA709488
:1020100077F87094C501B4010E9486214B015C01E0
:1020200020E030E0A901C701B6010E94752418160E
:1020300014F073016201A7019601C501B4010E9469
:10204000C8220E941F244B015C012FE632E143E8C5
:102050005AE3C301B2010E94E7212CA53DA54EA57C
:102060005FA50E94E721AB8DBC8D2D913D914D91D7
:102070005C910E94C8226B017C01EB8DFC8DC082BB
:10208000D182E282F38228A539A54AA55BA5C301C6
:10209000B2010E94E721A70196010E94C822FF8990
:1020A000F33109F440C120E030E040E05EE30E94FB
:1020B000E7216B017C0120E030E0A9010E9475243A
:1020C00020E030E040E05FE387FD28C1C701B601B2
:1020D0000E94C8220E9418246E7FAAA1BBA18D91E4
:1020E0009C91682B792B7C8B6B8B20919606309181
:1020F0009706AE014D5E5F4F6CA1809195060E94E0
:10210000BD0AED8DFE8D3196FE8FED8FFDA1FE5F38
:10211000FDA32CA13A8D230F2CA38AA19BA102968B
:102120009BA38AA3AB8DBC8D1496BC8FAB8FED8D1A
:10213000FE8D339709F03BCFF3E62F16310479F487
:1021400029EE821623E09206A104B10440F06AE26F
:1021500070E080ED95E00E940B07312C212CC50129
:10216000B4010E94862128A939A94AA95BA90E9425
:10217000E72120E030E040EA50E40E94812187FF1F
:1021800005C088A199A1019699A388A394E6891610
:102190009104A104B10408F0E5C0ABE02A163104B3
:1021A0000CF4E0C0E8A1F9A13A970CF4DBC06EE2B0
:1021B00070E080ED95E00E940B0720E030E040E405
:1021C0005FE368A579A58AA59BA50E94E72168A77A
:1021D00079A78AA79BA720E030E040E45FE36CA5E5
:1021E0007DA58EA59FA50E94E7216CA77DA78EA740
:1021F0009FA79E01235F3F4F6901FF88CE01019693
:102200003C01F30161917191819191913F01FF89AD
:10221000F33109F4BBC020E030E040E05EE30E940F
:10222000E7214B015C0120E030E0A9010E94752408
:1022300020E030E040E05FE387FDA3C0C501B401CA
:102240000E94C8220E9418246E7FD6018D919C9115
:10225000682B792B7C8B6B8B20919606309197069F
:10226000AE014D5E5F4F6F2D809195060E94BD0AB5
:10227000BA8DFB0EE2E0CE0ED11C288D398D2615CD
:10228000370509F0BECF8EA19FA101979FA38EA312
:10229000892B09F077CE85E996E00E945B0E0091CC
:1022A00096061091970621E043E06AE68091950634
:1022B0000E941D0EE7960FB6F894DEBF0FBECDBF8D
:1022C000DF91CF911F910F91FF90EF90DF90CF9012
:1022D000BF90AF909F908F907F906F905F904F9046
:1022E0003F902F90089523E12F8B32E03A8FE12C1D
:1022F00080E2F82EE3CD20E030E040E850E40E9498
:10230000E721A88DB98D6D937D938D939C93139741
:1023100012CE80E090E0A0E8BFE325CEC701B60171
:102320000E94C722D7CE20E030E040E85EE30E9462
:10233000E7216B017C0120E030E0A9010E947524B7
:1023400020E030E040E05FE387FD07C0C701B60151
:102350000E94C8220E941824C6CEC701B6010E945E
:10236000C722F8CF61E070E080E090E00E94290988
:102370009FEF291A390AA4E62A16310409F006CE7D
:1023800016CFC501B4010E94C7225CCF20E030E027
:1023900040E85EE30E94E7214B015C0120E030E071
:1023A000A9010E94752420E030E040E05FE387FD52
:1023B00007C0C501B4010E94C8220E9418244ACF58
:1023C000C501B4010E94C722F8CFB6E0BF8BE2E09E
:1023D000EA8F4BCDFC0101900020E9F73197AF0166
:1023E000481B590BBC0180ED95E00C94F1058F92D0
:1023F0009F92AF92BF920F931F93CF93DF93CDB76E
:10240000DEB7A1970FB6F894DEBF0FBECDBF19A2FD
:10241000423008F44AE08E010F5D1F4F842E912C4C
:10242000B12CA12CA50194010E94A522E62FB9018F
:10243000CA01EA30F4F4E05DD801EE938D01232B5C
:10244000242B252B79F790E080E0109719F0CD012F
:102450000E94EA11A1960FB6F894DEBF0FBECDBF61
:10246000DF91CF911F910F91BF90AF909F908F9070
:102470000895E95CE1CFCF92DF92EF92FF92CF9384
:10248000DF936C01990FEE08FF08F7FE19C06DE2AB
:1024900080ED95E00E94BE06EC0166277727CB0110
:1024A0006C197D098E099F094AE00E94F7118C0F73
:1024B0009D1FDF91CF91FF90EF90DF90CF90089517
:1024C0004AE0C701B601DF91CF91FF90EF90DF9016
:1024D000CF900C94F711CF93DF930E94EA11EC0197
:1024E0008CE492E00E94EA118C0F9D1FDF91CF9146
:1024F00008954F925F926F927F928F929F92AF92C8
:10250000BF92CF92DF92EF92FF920F931F93CF93E0
:102510006B017C01742EAC019B010E942425882351
:1025200099F08FE492E0CF911F910F91FF90EF907F
:10253000DF90CF90BF90AF909F908F907F906F90E3
:102540005F904F900C94EA1146015701E894B7F858
:102550002FEF3FEF4FE75FE7C501B4010E9424254D
:1025600081110DC02FEF3FEF4FE75FE7C501B401C9
:102570000E94812118161CF483E592E0D4CF2FEF3E
:102580003FEF4FE75FE4C701B6010E9475241816BC
:102590001CF487E592E0C7CF2FEF3FEF4FE75FECEA
:1025A000C701B6010E94812187FDF3CF20E030E012
:1025B000A901C701B6010E94812110E000E087FF58
:1025C0000AC06DE280ED95E00E94BE068C01F7FA2C
:1025D000F094F7F8F094C0E060E070E080E09FE3F2
:1025E0007C1641F020E030E040E251E40E94A62356
:1025F000CF5FF6CFA70196010E94C8222B013C01B4
:102600000E941F244B015C014AE00E94F7117C01EB
:10261000E00EF11ECC23C1F1C501B4010E94862158
:102620009B01AC01C301B2010E94C7224B015C01B6
:102630006EE280ED95E00E94BE06E80EF91EC150E4
:1026400018F120E030E040E251E4C501B4010E94FD
:10265000E7212B013C010E941F244B01B12CA12C2E
:102660004AE0C501B4010E94F711E80EF91EC50148
:10267000B4010E9486219B01AC01C301B2010E94FA
:10268000C7224B015C01DBCFC701CF911F910F9196
:10269000FF90EF90DF90CF90BF90AF909F908F9082
:1026A0007F906F905F904F9008952F923F924F923E
:1026B0005F926F927F928F929F92AF92BF92CF92D2
:1026C000DF92EF92FF920F931F93CF93DF9300D08F
:1026D0001F92CDB7DEB73C014B01242E522E302E77
:1026E00020919606309197066DE6809195060E949E
:1026F000A10C852D0E94B60C80E190E00E94B926C5
:102700005C01002369F180E190E00E94B9269C837E
:102710008B83D12CC12CC6014096482C4C188816AE
:10272000990610F080E1482E80E091E0851991092A
:102730004816190619F014F0452C4194332099F0ED
:10274000AB81BC8190E080E093012C0D3D1D841590
:1027500078F4F901E80FF91FE491ED930196F7CFB2
:102760001C821B82D6CFC3018C0D9D1D9C838B8345
:1027700000919606109197062B813C81442D6FE6BF
:10278000809195060E944E0C842D90E09A83898357
:10279000A114B10409F446C0209196063091970621
:1027A000422D4F716DE6809195060E94A10C852DFA
:1027B0000E94B60CE0909606F090970608EE13E0A3
:1027C0009501442D6FE6809195060E94BF0C4981CA
:1027D0005A81B5018B819C810E94DE27892B11F1E2
:1027E000C5010E945527332029F08B819C810E94CE
:1027F0005527312C832D0F900F900F900F90DF9164
:10280000CF911F910F91FF90EF90DF90CF90BF90ED
:10281000AF909F908F907F906F905F904F903F9080
:102820002F90089589819A81C80ED91EC814D904A1
:10283000B8F4540C09F4239420919606309197062D
:10284000422D4F716DE6809195060E94A10C852D59
:102850000E94B60C60CF8B819C810E945527CACF05
:10286000C5010E9455273110F6CF33243394C2CFCF
:1028700085ED8093BC008091D1039091D203A0910B
:10288000D303B091D4030796A11DB11D23E0B695E3
:10289000A795979587952A95D1F72091BC0024FD9F
:1028A00003C01092CF0308954091D1035091D203F9
:1028B0006091D3037091D403452B462B472B69F3CA
:1028C0000097A105B10541F02AE22A95F1F700C071
:1028D0000197A109B109E1CF8091D0030C94AC0913
:1028E0002F923F924F925F926F927F928F929F9220
:1028F000AF92BF92CF92DF92EF92FF920F931F930E
:10290000CF93DF9300D000D000D01F92CDB7DEB7B9
:102910009C018A014FE7469FC001479F900D1124FB
:1029200064E670E00E9489266B01B901330F880BC1
:10293000990B0E9488212BED3FE049E450E40E946E
:10294000E72120E030E044E353E40E94A6232B017A
:102950003C0184E193E09A878987A8E0B2E0BA83DA
:10296000A98322EB222E22E0322E3C822B820D2CD8
:10297000000CEE08FF08C801110FAA0BBB0B8D83DA
:102980009E83AF83B887A985BA856D917D918D911E
:102990009D91BA87A987A30192010E94C7220E9434
:1029A000D2244B015C01E981FA8101911191FA83F2
:1029B000E983C701B6010E948821A50194010E9404
:1029C000E7214B015C016D817E818F8198850E949A
:1029D00088219B01AC01C501B4010E94C8224B01B2
:1029E0005C01B801110F880B990B0E9488219B0193
:1029F000AC01C501B4010E94E721AB81BC816D939C
:102A00007D938D939D93BC83AB83E985FA85E452D6
:102A1000F34009F0B8CF02EC12E082EB92E09C8325
:102A20008B83812C912C5401AB81BC81CD90DD90A6
:102A3000ED90FD90BC83AB8320E030E0A901C7019D
:102A4000B6010E94752418160CF487C0C701B601A0
:102A50009058A50194010E94752418167CF420E07A
:102A600030E0A901C701B6010E9475244601570153
:102A7000181624F0B7FAB094B7F8B094EB81FC8143
:102A80000E171F0789F620E030E04EEF52E4C50133
:102A9000B4010E947524412C512C90E8692E9FE3CB
:102AA000792E181654F4A501940160E070E08EEFC1
:102AB00092E40E94A6232B013C0180E2A82E82E032
:102AC000B82E08E112E0D1016D917D918D919D911B
:102AD0001D01A30192010E94E7210E9418246B01AD
:102AE000F5018081F2E0AF0EB11C61E00E94E207C7
:102AF000D801BC91B9830E5F1F4F61E08B2F0E94FC
:102B0000100860E0E2E8CE16EFEFDE062CF0F0E809
:102B1000CF16D1042CF161E089810E94E2078B81FC
:102B20009C818215930579F62A960FB6F894DEBF3C
:102B30000FBECDBFDF91CF911F910F91FF90EF900E
:102B4000DF90CF90BF90AF909F908F907F906F90CD
:102B50005F904F903F902F900895C701B60179CFB5
:102B6000B60161587F4F89810E944108D8CF1F92DA
:102B70000F920FB60F9211240BB60F922F933F9323
:102B80004F935F936F937F938F939F93AF93BF9375
:102B9000EF93FF9389EF93E00E949C06FF91EF91E2
:102BA000BF91AF919F918F917F916F915F914F9165
:102BB0003F912F910F900BBE0F900FBE0F901F9063
:102BC00018951F920F920FB60F9211240BB60F9209
:102BD0002F933F934F935F936F937F938F939F9325
:102BE000AF93BF93EF93FF9389EF93E00E941E068C
:102BF000FF91EF91BF91AF919F918F917F916F91D5
:102C00005F914F913F912F910F900BBE0F900FBE90
:102C10000F901F9018951F920F920FB60F921124CC
:102C20000BB60F922F933F934F935F936F937F93C6
:102C30008F939F93AF93BF93EF93FF9386E994E0B5
:102C40000E949C06FF91EF91BF91AF919F918F9150
:102C50007F916F915F914F913F912F910F900BBE9C
:102C60000F900FBE0F901F9018951F920F920FB6E6
:102C70000F9211240BB60F922F933F934F935F93B4
:102C80006F937F938F939F93AF93BF93EF93FF9334
:102C900086E994E00E941E06FF91EF91BF91AF91EB
:102CA0009F918F917F916F915F914F913F912F9164
:102CB0000F900BBE0F900FBE0F901F9018951F9294
:102CC0000F920FB60F9211240BB60F922F933F93D2
:102CD0004F935F936F937F938F939F93AF93BF9324
:102CE000EF93FF9383E395E00E949C06FF91EF91A1
:102CF000BF91AF919F918F917F916F915F914F9114
:102D00003F912F910F900BBE0F900FBE0F901F9011
:102D100018951F920F920FB60F9211240BB60F92B7
:102D20002F933F934F935F936F937F938F939F93D3
:102D3000AF93BF93EF93FF9383E395E00E941E064A
:102D4000FF91EF91BF91AF919F918F917F916F9183
:102D50005F914F913F912F910F900BBE0F900FBE3F
:102D60000F901F9018951F920F920FB60F9211247B
:102D70000BB60F922F933F934F935F936F937F9375
:102D80008F939F93AF93BF93EF93FF9380ED95E065
:102D90000E949C06FF91EF91BF91AF919F918F91FF
:102DA0007F916F915F914F913F912F910F900BBE4B
:102DB0000F900FBE0F901F9018951F920F920FB695
:102DC0000F9211240BB60F922F933F934F935F9363
:102DD0006F937F938F939F93AF93BF93EF93FF93E3
:102DE00080ED95E00E941E06FF91EF91BF91AF919B
:102DF0009F918F917F916F915F914F913F912F9113
:102E00000F900BBE0F900FBE0F901F9018951F9242
:102E10000F920FB60F9211242F933F938F939F938E
:102E2000AF93BF938091070390910803A09109038A
:102E3000B0910A033091060323E0230F2D3758F594
:102E40000196A11DB11D2093060380930703909363
:102E50000803A0930903B0930A0380910B03909198
:102E60000C03A0910D03B0910E030196A11DB11D9D
:102E700080930B0390930C03A0930D03B0930E0368
:102E8000BF91AF919F918F913F912F910F900FBE66
:102E90000F901F90189526E8230F0296A11DB11DD3
:102EA000D2CF1F920F920FB60F9211240BB60F9232
:102EB0002F933F934F935F936F937F938F939F9342
:102EC000AF93BF93EF93FF938091B900887F8036D3
:102ED00009F44DC008F040C0883209F4A9C028F5B3
:102EE000803109F49DC0C8F4882309F4FBC0883000
:102EF00009F496C0FF91EF91BF91AF919F918F918F
:102F00007F916F915F914F913F912F910F900BBEE9
:102F10000F900FBE0F901F901895883109F488C04C
:102F2000803241F78093CD0314C0803409F49DC0F2
:102F300040F48033B9F38833E9F68093CD0385EC10
:102F4000B0C0803509F485C0883509F496C088344E
:102F500089F60E943814CECF883909F48CC038F530
:102F6000883729F050F4883611F0803719F683E05D
:102F70008093CF031092050357C0883809F47BC0B3
:102F8000803919F0803809F0B5CF8091050380327F
:102F900008F071C0E091050381E08E0F8093050376
:102FA0008091BB00F0E0EB51FD4F80833DC0803B42
:102FB00039F0E0F4803A09F479C0883A09F09ACF00
:102FC00084E08093CF031092E4021092E302E09138
:102FD0001103F091120319958091E30281110FC042
:102FE00081E08093E3021092C30209C0803C09F49F
:102FF000A6CF883C09F4A3CF883B09F07BCFE091B2
:10300000E40281E08E0F8093E402F0E0ED53FD4F87
:1030100080818093BB009091E4028091E30229C0FB
:103020008091AA038093BB0085EC8093BC0062CFA3
:103030009091CC038091CB03981758F5E091CC0385
:1030400081E08E0F8093CC03F0E0E555FC4F80814A
:10305000E9CFE091CC0381E08E0F8093CC03809187
:10306000BB00F0E0E555FC4F80839091CC0380914C
:10307000CB039817C8F285E8D8CFE091CC0381E064
:103080008E0F8093CC038091BB00F0E0E555FC4FA0
:1030900080838091CE0381115CCF81E08093A9036E
:1030A00084EA8093BC001092CF0324CF85EC8093F8
:1030B000BC001092CF0380910503803230F4E09180
:1030C0000503F0E0EB51FD4F10826091050370E0C5
:1030D000E0910F03F091100385EE92E019951092A4
:1030E000050308CF1092CD0334CFE9EFF3E013824C
:1030F000128288EE93E0A0E0B0E084839583A683FB
:10310000B7832CE232E03183208345E351E05587D9
:10311000448744E351E05787468740E351E0518BB1
:10312000408B41E351E0538B428B42E351E0558B9E
:10313000448B46E351E0578B468B118E128E138ED3
:10314000148EE6E9F4E01382128284839583A683C9
:10315000B7833183208345ED50E05587448744EDA4
:1031600050E05787468740ED50E0518B408B41ED52
:1031700050E0538B428B42ED50E0558B448B46ED33
:1031800050E0578B468B118E128E138E148EE3E314
:10319000F5E01382128284839583A683B7833183FB
:1031A00020834DEC50E0558744874CEC50E0578726
:1031B000468748EC50E0518B408B49EC50E0538BF4
:1031C000428B4AEC50E0558B448B4EEC50E0578BD1
:1031D000468B118E128E138E148EE0EDF5E0138265
:1031E000128284839583A683B7833183208325EC61
:1031F00030E03587248724EC30E03787268720ECC1
:1032000030E0318B208B21EC30E0338B228B22ECB1
:1032100030E0358B248B26EC30E0378B268B118EFB
:10322000128E138E148EEDE6F6E0138212828483E2
:103230009583A683B7838EE392E091838083E5E94B
:10324000F6E088E680831282118288EF9AE2A0E09D
:10325000B0E0818B928BA38BB48BE5E8F6E080E045
:1032600090E0A0E8BFE380839183A283B3831482BC
:10327000158216821782108611861286138614868E
:10328000158616861786E9E7F6E01082118212820B
:103290001382148215821682178210861186128676
:1032A00013860895CF93DF93CDB7DEB7EA970FB6B5
:1032B000F894DEBF0FBECDBF789484B5826084BD24
:1032C00084B5816084BD85B5826085BD85B581602A
:1032D00085BD80916E00816080936E0010928100A8
:1032E0008091810082608093810080918100816063
:1032F0008093810080918000816080938000809124
:10330000B10084608093B1008091B00081608093AF
:10331000B000809191008260809391008091910033
:1033200081608093910080919000816080939000F3
:103330008091A10082608093A1008091A1008160B2
:103340008093A1008091A00081608093A000809173
:10335000210182608093210180912101816080930D
:1033600021018091200181608093200180917A0069
:10337000846080937A0080917A00826080937A00E2
:1033800080917A00816080937A0080917A008068D1
:1033900080937A001092C10080ED95E00E94C805EC
:1033A00083E395E00E94C80586E994E00E94C80581
:1033B00089EF93E00E94C80510928803109287035A
:1033C0001092D6031092F8030E948E098FEE95E0BA
:1033D000909312038093110380EF95E09093100374
:1033E00080930F038CE08093B800E0909606F090F5
:1033F000970601E023E042E06BE6809195060E948B
:10340000C90D80E090E0AAEFBBE38093AE069093F5
:10341000AF06A093B006B093B106E0909606F09088
:10342000970600E022E044E06BE1809195060E945F
:10343000C90D80E090E0A0E8B8E38093AA069093DD
:10344000AB06A093AC06B093AD06E0909606F09064
:10345000970622E044E06CE1809195060E94C90D38
:10346000009196061091970620E046E06BE6809169
:1034700095060E941D0E009196061091970621E078
:1034800047E06BE6809195060E941D0E6EE170E0AC
:1034900080E090E00E94290900919606109197061D
:1034A00020E046E06BE6809195060E941D0E20917B
:1034B00096063091970640E76DE6809195060E944A
:1034C000A10C86E00E94B60C2091960630919706DA
:1034D00040E06DE6809195060E94A10C2091960631
:1034E000309197064FE765E2809195060E94A10C06
:1034F000009196061091970620E045E06AE68091DB
:1035000095060E941D0E209196063091970648E67A
:1035100065E2809195060E94A10C0091960610919B
:10352000970621E041E06AE6809195060E941D0E13
:1035300064E170E080E090E00E942909E090960646
:10354000F090970603E023E042E06BE68091950659
:103550000E94C90D209196063091970642E168E3DA
:10356000809195060E94A10C2091960630919706B5
:1035700044E069E1809195060E94A10CE0909606D6
:10358000F090970601E023E045E06AE1809195061E
:103590000E94C90DE0909606F090970603E023E0A4
:1035A00042E06AE1809195060E94C90D80E090E0BA
:1035B000AAE7BDE38093AE069093AF06A093B00652
:1035C000B093B106E0909606F090970622E044E0B2
:1035D0006BE1809195060E94C90D01E020E040E07A
:1035E00069E877E08EE993E00E945513882309F497
:1035F000EBC1198281E08A8300E026E142E062E0CB
:1036000070E0CE0101960E945513209196063091EC
:10361000970643E060E7809195060E94A10C2091F7
:1036200096063091970640E061E7809195060E94EA
:10363000A10C009196061091970620E040E060E012
:10364000809195060E941D0E209196063091970656
:1036500042E06FE1809195060E94A10C20919606B0
:10366000309197064CE961E2809195060E94A10C89
:10367000209196063091970640E560E2809195068C
:103680000E94A10C209196063091970640E062E2DC
:10369000809195060E94A10C0091960610919706C4
:1036A00021E046E06AE6809195060E941D0E009199
:1036B00096061091970621E043E06AE68091950610
:1036C0000E941D0E009196061091970620E047E09B
:1036D0006AE6809195060E941D0E8AE290E0909322
:1036E000C1068093C00685E996E00E945B0EE090DB
:1036F0009606F090970608EE13E028E936E041E0E0
:103700006AE3809195060E94BF0C80E080931303CA
:103710000E947F0D66E0883308F067E720919606E7
:10372000309197064DEE58EF809195060E948F0CD0
:103730000E947F0D68E0883308F06AE720919606C2
:10374000309197064CEA5BEF809195060E948F0CB2
:103750000E947F0D6AE0883308F06DE7209196069D
:103760003091970640EC53E0809195060E948F0CB3
:10377000209196063091970648E450E063E18091ED
:1037800095060E948F0C209196063091970647EF80
:103790005FEF65E1809195060E948F0C209196065F
:1037A0003091970650E040E067E1809195060E94D5
:1037B0008F0C80911303811109C100E010E028EA09
:1037C00031E44EEA57E461EA7EE38BE30E94060FA0
:1037D0000FEF1FEF2CEB32E44EEA57E461EA7EE391
:1037E00083E40E94060F009196061091970621E04F
:1037F00047E06AE6809195060E941D0E62E084E330
:103800000E94100862E085E30E9410088091810008
:10381000887F8160809381008091B100887F816082
:103820008093B10080919100887F816080939100A6
:103830008091A100887F81608093A10000E212E066
:1038400048E1C42E42E0D42E50E1852E52E0952E60
:1038500064E1662E63E0762E56017801D7014C9024
:10386000B2E0EB0EF11C61E0842D0E941008F5011E
:103870005080F2E0AF0EB11C61E0852D0E9410086F
:1038800061E0842D0E94E20761E0852D0E9410080E
:103890006FE770E0852D0E944108D4016D917D9104
:1038A0004D01072E000C880B990B0E9488212BEDEF
:1038B0003FE049E450E40E94E72120E030E044E3A7
:1038C00053E40E94A623F301619371938193919332
:1038D0003F01F8E2EF16F2E0FF0609F0BFCFD80192
:1038E0008C910E5F1F4F61E00E94E207F601F080AD
:1038F000F2E0CF0ED11C61E08F2D0E9410086FE71F
:1039000070E08F2D0E94410822E00832120739F73B
:10391000CE0105969AA389A32090C0063090C106D7
:103920002BA20E9404092B013C015101BB240E94DF
:10393000AA0D9C01A816B9060CF075C0893C91052A
:103940000CF449C085E996E00E945B0E0E94AA0D26
:103950009C01892B09F06BC00E9404096419750948
:10396000860997090091A6061091A7062091A8063E
:103970003091A906061717072807390738F72DECE5
:103980003CEC4CE45FE3609124037091250380914B
:103990002603909127030E94E7214B015C011092BE
:1039A00086031092850380918403882309F435C22D
:1039B00083E395E00E946806892B09F459C083E3EC
:1039C00095E00E944606F4CF81E0A0CE8BE592E020
:1039D0000E94EA1113CF0E94AA0D9C01A816B906F5
:1039E00014F56C01CA18DB08460191E2C916D1042E
:1039F0001CF030E2832E912C882099F0E0909606FE
:103A0000F090970608EE13E09E012F5F3F4F482D80
:103A100064E7809195060E94BF0CC818D90821F769
:103A2000DACF1982FACF2115310509F4A8CFA216F1
:103A3000B30609F472C20E94040964197509860963
:103A400097090091A6061091A7062091A80630912B
:103A5000A906061717072807390708F068CF8FCF80
:103A6000109234036CC26BED7FE089E490EC1EC4CD
:103A70006EEF70E083E395E00E940B070E945B0904
:103A80006B017C0183E395E00E94680608970CF0C7
:103A900075C00E945B096C197D098E099F0966300B
:103AA00071058105910570F36FEF70E086E994E090
:103AB0000E940B070E9404096B017C0186E994E0D7
:103AC0000E94680605970CF09DC00E9404096C19BD
:103AD0007D098E099F09613177428105910570F357
:103AE000C501B4010E9418244B018091820390917A
:103AF0008303019709F0D5C08091800390918103E1
:103B0000A40166E470E08C549F4F0E9470146EE133
:103B100070E080E090E00E94290985E30E94B907E7
:103B2000892B09F0DDC164E170E080E090E00E9443
:103B3000290985E30E94B907892B09F0D1C11092A8
:103B40007903109278031092840350E040E070E013
:103B500060E090E080E00E94701486E792E00E94AE
:103B60006B1285E30E94B907892B09F0B9C16AE09D
:103B700070E080E090E00E942909F3CF83E395E0B4
:103B80000E9446068E3F910509F08ECF83E395E0B3
:103B90000E9446067C0183E395E00E944606682E5B
:103BA00083E395E00E9446068C0183E395E00E9442
:103BB0004606782E83E395E00E944606C82E83E3EE
:103BC00095E00E944606D82E83E395E00E944606C3
:103BD000FF24F0928303E09282031695102F0027B2
:103BE0001795079500781F77062910938103009396
:103BF000800370927403C0927503D0927603809311
:103C0000770352CF86E994E00E9446068F3F9105E4
:103C100009F066CF8E010F5F1F4F0E945B09609312
:103C20009E0470939F048093A0049093A10486E95E
:103C300094E00E94460697FF5AC30E945B09C09019
:103C40009E04D0909F04E090A004F090A1046C1911
:103C50007D098E099F09C0909A04D0909B04E09042
:103C60009C04F0909D046C157D058E059F05F8F26F
:103C7000898190E090937F0380937E038B81B0E8ED
:103C80008B9FC00111242A81822B90937B03809308
:103C90007A038C8190E00596909301028093000254
:103CA0001FCF80917E0390917F03019709F0AFC0F1
:103CB00060917A0370917B03653B71050CF082C0C3
:103CC000072E000C880B990B0E9488212B013C01C8
:103CD0000091000210910102B801012E000C880B26
:103CE000990B0E9488219B01AC0164ED7FE18AE77A
:103CF0009FE30E948224A30192010E94E72120E019
:103D000030E040E650E40E94E7216B017C0120E0B6
:103D100030E044EB52EC0E94812187FD56C020E048
:103D200030E044EB52E4C701B6010E947524181636
:103D300034F4C12CD12C94EBE92E92E4F92EA70196
:103D40009601C301B2010E94C8226B017C0120E0F0
:103D500030E0A9010E9475241816F4F520E030E047
:103D600040EF51E4C701B6010E94812187FF3EC0A8
:103D7000E6E9F0E0F0938603E093850320E030E08D
:103D8000A901C701B6010E94812187FF0AC020E076
:103D900030E044EB53E4C701B6010E94C8226B0136
:103DA0007C01C701B6010E941824CB0170937D03EA
:103DB00060937C036091850370918603A4010E9447
:103DC0007014ABCE685671407BCFC12CD12C84EBE4
:103DD000E82E82ECF82EB3CF20E030E040EF51EC3B
:103DE000C701B6010E947524181614F20832110595
:103DF0003CF484E690E09093860380938503BECFE5
:103E0000ACE3B0E0B0938603A0938503B7CFA401E1
:103E100070E060E090E080E0D2CF84E30E94B907D8
:103E2000892B19F564E170E080E090E00E94290997
:103E300084E30E94B907892BC1F4E1E0F0E0F0933C
:103E40007903E09378031092840380E892E00E9463
:103E50006B1284E30E94B907892B39F46AE070E0A1
:103E600080E090E00E942909F4CF8091780390913E
:103E70007903019709F041C020E030E040E752E4C7
:103E8000C501B4010E94752487FD0AC020E030E01E
:103E900048E453E4C501B4010E9481211816A4F43A
:103EA00020E030E040E752ECC501B4010E948121DE
:103EB0001816CCF020E030E048E453ECC501B40122
:103EC0000E94752487FD0FC048E250E070E060E07A
:103ED00090E080E00E94701482E992E00E946B12F0
:103EE0000E942D0719CD1092790310927803F1E00A
:103EF000F093840381EA92E0F1CF64E670E080E021
:103F000090E00E94290942E0C501B4010E947912A3
:103F10008CE492E00E94EA11E3CF2BA1222309F462
:103F20009FCDE0909606F090970608EE13E024E30C
:103F300033E0422D64E7809195060E94BF0C80908B
:103F4000380390903903982489249824A0903C0346
:103F5000B0903D03BA24AB24BA24009140031091E1
:103F60004103102701271027609134037091350316
:103F7000762767277627072E000C880B990B0E945F
:103F8000882120E030E040E858E30E94E7216B01FF
:103F90007C01C0928506D0928606E0928706F09258
:103FA0008806B401990C880B990B0E94882120E0A7
:103FB00030E040E858E30E94E7212B013C014092A9
:103FC000890650928A0660928B0670928C06B50123
:103FD000BB0C880B990B0E94882120E030E040E860
:103FE00058E30E94E7216BA37CA38DA39EA360935B
:103FF0008D0670938E0680938F0690939006B8017D
:10400000110F880B990B0E94882120E030E040E8D6
:1040100058E30E94E7216FA378A789A79AA7609326
:1040200091067093920680939306909394069B0159
:10403000AC01C301B2010E94E7214B015C012BA13D
:104040003CA14DA15EA1C701B6010E94E7219B01E1
:10405000AC01C501B4010E94C7229B01AC010E94C2
:10406000C8226BAB7CAB8DAB9EAB60937906709333
:104070007A0680937B0690937C06A3019201C70188
:10408000B6010E94E7214B015C012FA138A549A58B
:104090005AA56BA17CA18DA19EA10E94E7219B0145
:1040A000AC01C501B4010E94C8229B01AC010E9471
:1040B000C8226FA778AB89AB9AAB60937D067093EB
:1040C0007E0680937F0690938006A7019601C70124
:1040D000B6010E94E7214B015C01A3019201C301DB
:1040E000B2010E94E7219B01AC01C501B4010E940D
:1040F000C7224B015C012BA13CA14DA15EA1CA01CD
:10410000B9010E94E7219B01AC01C501B4010E94E5
:10411000C7224B015C012FA138A549A55AA5CA01A8
:10412000B9010E94E7219B01AC01C501B4010E94C5
:10413000C8226BA77CA78DA79EA76093810670936A
:1041400082068093830690938406A7019601C70197
:10415000B6010E94C8224B015C01A3019201C30178
:10416000B2010E94C8226FAB78AF89AF9AAFA701A6
:104170009601C501B4010E94E7216B017C01A301F6
:1041800092016FA978AD89AD9AAD0E94E7219B019C
:10419000AC01C701B6010E94C82220E030E040E82F
:1041A0005FE30E94C7226B017C012BA13CA14DA1C2
:1041B0005EA16FA978AD89AD9AAD0E94E7212B0170
:1041C0003C012FA138A549A55AA5C501B4010E94FB
:1041D000E7219B01AC01C301B2010E94C722A701E4
:1041E00096010E9447234B015C0180922803909224
:1041F0002903A0922A03B0922B032FA538A949A91D
:104200005AA9CA01B9010E94E7216B017C012BA5C3
:104210003CA54DA55EA5CA01B9010E94E7219B01FD
:10422000AC01C701B6010E94C8220E94E0249B0194
:10423000AC016BA97CA98DA99EA90E9447236B01A3
:104240007C01C0922C03D0922D03E0922E03F092B9
:104250002F032BA53CA54DA55EA56FA578A989A91F
:104260009AA90E944723609330037093310380938F
:1042700032039093330320E030E0A9016BA57CA5C5
:104280008DA59EA50E94812187FF1AC020E030E005
:10429000A901C701B6010E947524A701960118164D
:1042A0000CF0E1CB6BED7FE089E490E40E94C72243
:1042B00060932C0370932D0380932E0390932F0310
:1042C00020E030E044E353E4C501B4010E94E7215B
:1042D0002BED3FE049E450E40E94A62360932403C1
:1042E00070932503809326039093270348CBD8012E
:1042F0008D938D01E9A1FAA1AE17BF0709F08DCC0E
:10430000B7CC0E94C32108F481E00895E89409C065
:1043100097FB3EF490958095709561957F4F8F4FF8
:104320009F4F9923A9F0F92F96E9BB279395F6950E
:10433000879577956795B795F111F8CFFAF4BB0F8C
:1043400011F460FF1BC06F5F7F4F8F4F9F4F16C0F0
:10435000882311F096E911C0772321F09EE8872F7A
:10436000762F05C0662371F096E8862F70E060E036
:104370002AF09A95660F771F881FDAF7880F9695AF
:10438000879597F90895990F0008550FAA0BE0E853
:10439000FEEF16161706E807F907C0F01216130607
:1043A000E407F50798F0621B730B840B950B39F447
:1043B0000A2661F0232B242B252B21F408950A26AD
:1043C00009F4A140A6958FEF811D811D08950E94DB
:1043D000FA210C946B220E945D2238F00E94642224
:1043E00020F0952311F00C9454220C945A2211249D
:1043F0000C949F220E947C2270F3959FC1F3950F2D
:1044000050E0551F629FF001729FBB27F00DB11D58
:10441000639FAA27F00DB11DAA1F649F6627B00DE8
:10442000A11D661F829F2227B00DA11D621F739FD1
:10443000B00DA11D621F839FA00D611D221F749FDF
:104440003327A00D611D231F849F600D211D822F26
:10445000762F6A2F11249F5750409AF0F1F088234D
:104460004AF0EE0FFF1FBB1F661F771F881F91507A
:104470005040A9F79E3F510580F00C9454220C94B3
:104480009F225F3FE4F3983ED4F386957795679536
:10449000B795F795E7959F5FC1F7FE2B880F911DA4
:1044A0009695879597F9089597F99F6780E870E04A
:1044B00060E008959FEF80EC089500240A9416169A
:1044C000170618060906089500240A941216130602
:1044D000140605060895092E0394000C11F4882390
:1044E00052F0BB0F40F4BF2B11F460FF04C06F5FAC
:1044F0007F4F8F4F9F4F089557FD9058440F551F82
:1045000059F05F3F71F04795880F97FB991F61F055
:104510009F3F79F087950895121613061406551FCC
:10452000F2CF4695F1DF08C0161617061806991F38
:10453000F1CF86957105610508940895E894BB272D
:1045400066277727CB0197F90895A1E21A2EAA1BB7
:10455000BB1BFD010DC0AA1FBB1FEE1FFF1FA21733
:10456000B307E407F50720F0A21BB30BE40BF50B30
:10457000661F771F881F991F1A9469F760957095B9
:10458000809590959B01AC01BD01CF0108955058D5
:10459000BB27AA270E94DF220C946B220E945D2277
:1045A00038F00E94642220F039F49F3F19F426F479
:1045B0000C945A220EF4E095E7FB0C945422E92F58
:1045C0000E947C2258F3BA17620773078407950785
:1045D00020F079F4A6F50C949E220EF4E0950B2EB3
:1045E000BA2FA02D0B01B90190010C01CA01A00145
:1045F0001124FF27591B99F0593F50F4503E68F1A0
:104600001A16F040A22F232F342F4427585FF3CFE0
:10461000469537952795A795F0405395C9F77EF4B1
:104620001F16BA0B620B730B840BBAF09150A1F0FA
:10463000FF0FBB1F661F771F881FC2F70EC0BA0F80
:10464000621F731F841F48F4879577956795B79508
:10465000F7959E3F08F0B0CF9395880F08F0992703
:10466000EE0F9795879508950E945D2260F080E88F
:1046700091E009F49EEF0E94642228F040E851E0A6
:1046800071F45EEF0CC00C945A220C949E22E92F18
:10469000E0780E947C2240F3092E052AB1F3261708
:1046A00037074807590738F00E2E07F8E02569F05C
:1046B000E025E0640AC0EF6307F8009407FADB0125
:1046C000B9019D01DC01CA01AD01EF930E94BD2338
:1046D0000E946B220E9477235F91552339F02BEDC6
:1046E0003FE049E450FD49EC0C94C8220895DF9363
:1046F000DD27B92FBF7740E85FE316161706480796
:104700005B0718F4D92F0E947A249F938F937F938D
:104710006F930E942025E4EEF0E00E944E240E9458
:104720006B222F913F914F915F910E94FA21DD23DF
:1047300051F09058A2EA2AED3FE049EC5FE3D078CF
:104740005D270E94DF22DF910C946B220E94BA2326
:104750000C946B220E94642258F00E945D2240F06B
:1047600029F45F3F29F00C94542251110C949F229C
:104770000C945A220E947C2268F39923B1F35523AA
:1047800091F3951B550BBB27AA2762177307840764
:1047900038F09F5F5F4F220F331F441FAA1FA9F3FA
:1047A00035D00E2E3AF0E0E832D091505040E695E8
:1047B000001CCAF72BD0FE2F29D0660F771F881F49
:1047C000BB1F261737074807AB07B0E809F0BB0B3C
:1047D000802DBF01FF2793585F4F3AF09E3F510550
:1047E00078F00C9454220C949F225F3FE4F3983E9F
:1047F000D4F3869577956795B795F7959F5FC9F739
:10480000880F911D9695879597F90895E1E0660FB9
:10481000771F881FBB1F621773078407BA0720F032
:10482000621B730B840BBA0BEE1F88F7E09508959B
:104830000E941F246894B1110C949F2208950E9435
:10484000842288F09F5798F0B92F9927B751B0F07C
:10485000E1F0660F771F881F991F1AF0BA95C9F704
:1048600014C0B13091F00E949E22B1E008950C94E2
:104870009E22672F782F8827B85F39F0B93FCCF395
:10488000869577956795B395D9F73EF49095809581
:10489000709561957F4F8F4F9F4F0895DF93CF9312
:1048A0001F930F93FF92EF92DF927B018C0168942C
:1048B00006C0DA2EEF010E94FA21FE01E894A591CC
:1048C0002591359145915591A6F3EF010E94DF2284
:1048D000FE019701A801DA9469F7DF90EF90FF904D
:1048E0000F911F91CF91DF9108950E94C32108F489
:1048F0008FEF08959B01AC0160E070E080E89FE3DA
:104900000C94A623FA01EE0FFF1F30962105310506
:10491000A1F16115710561F48038BFE39B0749F18E
:1049200068949038810561F08038BFEF9B0741F0B3
:1049300099234AF5FF3FE1053105210519F1E89476
:104940000894E795D901AA2329F4AB2FBE2FF85F6D
:10495000D0F310C0FF5F70F4A695E0F7F73950F080
:1049600019F0FF3A38F49F779F930DD00F9007FC12
:104970009058089546F00C945A2260E070E080E868
:104980009FE308954FE79F775F934F933F932F9354
:104990000E94F9252F913F914F915F910E94E7214D
:1049A0000C9431259F930E947A250F9007FCEE5FAF
:1049B0000C94A32519F416F40C945A220C94632534
:1049C0000E948422B8F39923C9F3B6F39F57550B7D
:1049D00087FF0E9471250024A0E640EA90018058DC
:1049E0005695979528F4805C660F771F881F20F0F6
:1049F00026173707480730F4621B730B840B2029F6
:104A000031294A2BA69517940794202531254A274A
:104A100058F7660F771F881F20F0261737074807BB
:104A200030F4620B730B840B200D311D411DA095DA
:104A300081F7B901842F9158880F9695879508952D
:104A40009B01AC010C94E7210E94C321880B990BB8
:104A5000089529F416F00C9454220C949E220C9480
:104A60005A220E948422A8F39638A0F707F80F92E2
:104A7000E8942BE33AEA48EB5FE70E94FD210F92AE
:104A80000F920F924DB75EB70F920E944126E1E15F
:104A9000F1E00E944E244F915F91EF91FF91E595D7
:104AA000EE1FFF1F49F0FE57E0684427EE0F441F3A
:104AB000FA95E1F74195550B0E94BB250F9007FE33
:104AC0000C947A2408959F3F31F0915020F48795FB
:104AD00077956795B795880F911D9695879597F966
:104AE000089591505040660F771F881FD2F70895A0
:104AF0000C945A220E948422D8F3E894E0E0BB2769
:104B00009F57F0F02AED3FE049EC06C0EE0FBB0FD7
:104B1000661F771F881F28F0B23A62077307840761
:104B200028F0B25A620B730B840BE3959A9572F7D7
:104B3000803830F49A95BB0F661F771F881FD2F715
:104B400090480C946525EF93E0FF07C0A2EA2AED98
:104B50003FE049EC5FEB0E94DF220E946B220F9046
:104B6000039401FC9058E9E3F1E00C9475260C9451
:104B700054220C9463250E948422D8F39923C9F30C
:104B8000940F511DA3F39150504094F059F0882395
:104B900032F0660F771F881F91505040C1F79E3F3B
:104BA00051052CF7880F911D9695879597F90895D3
:104BB0005F3FACF0983E9CF0BB2786957795679554
:104BC000B79508F4B1609395C1F7BB0F58F711F48E
:104BD00060FFE8CF6F5F7F4F8F4F9F4FE3CF0C9405
:104BE0009F2216F00C9463250C945A2268940C941E
:104BF00054220E948422A8F39923C1F3AEF3DF93D9
:104C0000CF931F930F93FF92C92FDD2788232AF09C
:104C10002197660F771F881FDAF720E030E040E821
:104C20005FEB9FE3883920F0803E38F021968F7744
:104C30000E94C822E7E5F1E004C00E94C822E4E82F
:104C4000F1E00E944E248B01BE01EC01FB2E6F5758
:104C500071097595771F880B990B0E94882128E1AF
:104C600032E741E35FE30E94FA21AF2D9801AE01E4
:104C7000FF900F911F91CF91DF910E94DF220C9442
:104C80006B22FA01DC01AA0FBB1F9B01AC01BF57CD
:104C900028F4222733274427507820C0B75190F4B6
:104CA000AB2F0024469537952795011CA395D2F389
:104CB000002071F0220F331F441FB395DAF30ED09A
:104CC0000C94C72261307105A0E88A07B94630F418
:104CD0009B01AC016627772788279078309621F0D2
:104CE000208331834283538308959F938F937F93CF
:104CF0006F93FF93EF939B01AC010E94E721EF912B
:104D0000FF910E944E242F913F914F915F910C94FF
:104D1000E72197FB072E16F4009407D077FD09D002
:104D20000E94A52607FC05D03EF4909581959F4FE3
:104D30000895709561957F4F0895EE0FFF1F881FAE
:104D40008BBF0790F691E02D1994AA1BBB1B51E174
:104D500007C0AA1FBB1FA617B70710F0A61BB70BEB
:104D6000881F991F5A95A9F780959095BC01CD0190
:104D700008950F931F93CF93DF938230910510F422
:104D800082E090E0E091C406F091C50630E020E0BA
:104D9000B0E0A0E0309799F42115310509F44AC03C
:104DA000281B390B24303105D8F58A819B81611588
:104DB000710589F1FB0193838283FE0111C040815B
:104DC00051810281138148175907E0F048175907AC
:104DD00099F4109761F012960C93129713961C9306
:104DE0003296CF01DF91CF911F910F9108950093DB
:104DF000C4061093C506F4CF2115310551F04217B2
:104E0000530738F0A901DB019A01BD01DF01F80168
:104E1000C1CFEF01F9CF9093C5068093C406CDCFE3
:104E2000FE01E20FF31F81939193225031093983E0
:104E30002883D7CF2091C2063091C306232B41F49B
:104E400020910402309105023093C3062093C206DC
:104E500020910202309103022115310541F42DB752
:104E60003EB74091060250910702241B350BE0919A
:104E7000C206F091C306E217F307A0F42E1B3F0B06
:104E80002817390778F0AC014E5F5F4F24173507BC
:104E900048F04E0F5F1F5093C3064093C2068193A4
:104EA00091939FCFF0E0E0E09CCFCF93DF9300970A
:104EB000E9F0FC01329713821282A091C406B091EE
:104EC000C506ED0130E020E01097A1F4208131818A
:104ED000820F931F2091C2063091C306281739070D
:104EE00009F061C0F093C306E093C206DF91CF9151
:104EF0000895EA01CE17DF07E8F54A815B819E013C
:104F000041155105B1F7E901FB83EA8349915991B4
:104F1000C40FD51FEC17FD0761F4808191810296C3
:104F2000840F951FE90199838883828193819B83F4
:104F30008A83F0E0E0E012968D919C9113970097A0
:104F4000B9F52D913C911197CD010296820F931FD7
:104F50002091C2063091C3062817390739F63097D9
:104F600051F51092C5061092C406B093C306A093E3
:104F7000C206BCCFD383C28340815181840F951F69
:104F8000C817D90761F44E5F5F4F88819981480F38
:104F9000591F518340838A819B819383828321158A
:104FA000310509F0B0CFF093C506E093C4069ECF5B
:104FB000FD01DC01C0CF13821282D7CFFB01DC01DF
:104FC00004C08D910190801921F441505040C8F7E0
:104FD000881B990B0895F894FFCFFF000000C606C8
:104FE0008000010001000100FFFF2D008700E100AB
:104FF0003B01020008000500090004000600030050
:10500000070000000000BE06F10537060D07680620
:1050100046065A06000000001C0CEF0B4B0CC50B9B
:10502000E80BD50BC60B0D0A006E616E00696E664B
:10503000006F766600444D5020496E697469616C5A
:10504000697A6174696F6E206661696C65642E00AF
:1050500047616D652053746F7000537461727420E2
:1050600053657175656E63652E2E2E0053746162F3
:10507000696C697A696E672E2E2E00474F21204792
:0C508000616D65205374617274210000A2
:020000040003F7
:10E000000D9489F10D94B2F10D94B2F10D94B2F129
:10E010000D94B2F10D94B2F10D94B2F10D94B2F1F0
:10E020000D94B2F10D94B2F10D94B2F10D94B2F1E0
:10E030000D94B2F10D94B2F10D94B2F10D94B2F1D0
:10E040000D94B2F10D94B2F10D94B2F10D94B2F1C0
:10E050000D94B2F10D94B2F10D94B2F10D94B2F1B0
:10E060000D94B2F10D94B2F10D94B2F10D94B2F1A0
:10E070000D94B2F10D94B2F10D94B2F10D94B2F190
:10E080000D94B2F10D94B2F10D94B2F10D94B2F180
:10E090000D94B2F10D94B2F10D94B2F10D94B2F170
:10E0A0000D94B2F10D94B2F10D94B2F10D94B2F160
:10E0B0000D94B2F10D94B2F10D94B2F10D94B2F150
:10E0C0000D94B2F10D94B2F10D94B2F10D94B2F140
:10E0D0000D94B2F10D94B2F10D94B2F10D94B2F130
:10E0E0000D94B2F141546D656761323536300041AF
:10E0F000726475696E6F206578706C6F72657220DE
:10E1000073746B3530305632206279204D4C530099
:10E11000426F6F746C6F616465723E004875683F52
:10E1200000436F6D70696C6564206F6E203D200048
:10E130004350552054797065202020203D20005FF9
:10E140005F4156525F415243485F5F3D2000415658
:10E1500052204C696243205665723D20004743437C
:10E160002056657273696F6E203D20004350552024
:10E1700049442020202020203D20004C6F7720663D
:10E18000757365202020203D20004869676820665F
:10E190007573652020203D200045787420667573D6
:10E1A00065202020203D20004C6F636B2066757336
:10E1B000652020203D20004D617220203720323024
:10E1C000313300312E362E3800342E332E350056A2
:10E1D00023202020414444522020206F7020636F70
:10E1E00064652020202020696E73747275637469E1
:10E1F0006F6E2061646472202020496E74657272B3
:10E20000757074006E6F20766563746F7200726A49
:10E210006D702020006A6D70200057686174207056
:10E220006F72743A00506F7274206E6F7420737541
:10E2300070706F72746564004D7573742062652030
:10E2400061206C6574746572002000577269747483
:10E25000696E672045450052656164696E672045B7
:10E26000450045452065727220636E743D00504F35
:10E27000525400303D5A65726F2061646472003FF1
:10E280003D43505520737461747300403D454550C3
:10E29000524F4D207465737400423D426C696E6B41
:10E2A000204C454400453D44756D70204545505215
:10E2B0004F4D00463D44756D7020464C415348001B
:10E2C000483D48656C70004C3D4C69737420492F83
:10E2D0004F20506F72747300513D51756974005234
:10E2E0003D44756D702052414D00563D73686F7707
:10E2F00020696E7465727275707420566563746FF0
:10E30000727300593D506F727420626C696E6B00BD
:10E310002A0011241FBECFEFD1E2DEBFCDBF01E046
:10E320000CBF12E0A0E0B2E0EEE1FDEF03E00BBFB6
:10E3300002C007900D92A030B107D9F712E0A0E01B
:10E34000B2E001C01D92AE30B107E1F70F9460F367
:10E350000D948DFE01E20EBF0FEF0DBF11241FBE05
:10E360000D9460F30D9400F020E030E040ED57E0B4
:10E3700005C0FA013197F1F72F5F3F4F2817390792
:10E38000C0F308959C01260F311DC901A0E0B0E043
:10E390002F5F3F4FABBFFC018791882361F08093D3
:10E3A000C6008091C00086FFFCCF8091C0008064D1
:10E3B0008093C000EACF08958DE08093C6008091DD
:10E3C000C00086FFFCCF8091C00080648093C000B5
:10E3D0008AE08093C6008091C00086FFFCCF8091C8
:10E3E000C00080648093C00008950F94C2F10F9420
:10E3F000DCF10895FC019081992359F09093C600B7
:10E400008091C00086FFFCCF8091C0008064809323
:10E41000C0003196992379F70895282F982F929567
:10E420009F70892F805D8A3308F0895F8093C600D2
:10E430008091C00086FFFCCF8091C00080648093F3
:10E44000C000822F8F70982F905D9A3308F0995FEB
:10E450009093C6008091C00086FFFCCF8091C000E1
:10E4600080648093C00008959C01FB01853691056E
:10E470001CF46330710594F0C90164E670E00F94F8
:10E480002EFE605D7F4F6093C6008091C00086FFC6
:10E49000FCCF8091C00080648093C0002B30310598
:10E4A00014F43297B4F0C90164E670E00F942EFEC4
:10E4B0006AE070E00F942EFE605D7F4F6093C600AF
:10E4C0008091C00086FFFCCF8091C0008064809363
:10E4D000C000C9016AE070E00F942EFEC0968093E0
:10E4E000C6008091C00086FFFCCF8091C000806490
:10E4F0008093C00008951F93182F8EE692EE60E07F
:10E500000F94C2F11093C6008091C00086FFFCCF2B
:10E510008091C00080648093C0000F94DCF11F9153
:10E5200008952F923F924F925F926F927F928F92B7
:10E530009F92AF92BF92CF92DF92EF92FF920F9392
:10E540001F93DF93CF93CDB7DEB762970FB6F894E2
:10E55000DEBF0FBECDBF382E622ECA01DB015C01CB
:10E560006D01772420E2222E2E010894411C511CBB
:10E570008BC081E0A81680E0B80681E0C80680E084
:10E58000D80628F0C601AA27BB270F940DF2BB2797
:10E59000AD2D9C2D8B2D0F940DF28A2D0F940DF225
:10E5A0002092C6008091C00086FFFCCF8091C00001
:10E5B00080648093C0009DE29093C6008091C0006B
:10E5C00086FFFCCF8091C00080648093C0002092C1
:10E5D000C6008091C00086FFFCCF8091C00080649F
:10E5E0008093C00019828601750188249924A1E0D6
:10E5F0003A1651F03A1620F0B2E03B1661F409C029
:10E600000BBFF701779007C0C7010F9477FE782EF4
:10E6100002C0F7017080872D0F940DF22092C60082
:10E620008091C00086FFFCCF8091C0008064809301
:10E63000C000872D8052F401EF70F0708F3520F408
:10E64000E40DF51D708204C0E40DF51D8EE280839B
:10E650000894E11CF11C011D111D0894811C911CE2
:10E6600090E18916910409F0C2CF80E190E0A0E02A
:10E67000B0E0A80EB91ECA1EDB1E198AC2010F9493
:10E68000FAF10F94DCF16A94662009F072CF629679
:10E690000FB6F894DEBF0FBECDBFCF91DF911F91B3
:10E6A0000F91FF90EF90DF90CF90BF90AF909F9031
:10E6B0008F907F906F905F904F903F902F90089534
:10E6C0002F923F924F925F926F927F928F929F9282
:10E6D000AF92BF92CF92DF92EF92FF920F931F9370
:10E6E000DF93CF93CDB7DEB7CD53D1400FB6F894BB
:10E6F000DEBF0FBECDBF01E20EBF0FEF0DBF94B75F
:10E70000F894A89514BE80916000886180936000A1
:10E7100010926000789493FF05C0E0910002F091A0
:10E7200001021995279A2F9A8091C00082608093E8
:10E73000C00080E18093C40088E18093C1000000A4
:10E74000EE24FF24870144E0A42EB12CCC24DD2448
:10E7500024C0C5010197F1F70894E11CF11C011DCB
:10E76000111D21E2E2162EE4F20620E0020720E06D
:10E77000120718F031E0C32ED12CC801B70127ECE5
:10E780003BE140E050E00F9441FE611571058105C9
:10E79000910519F485B1805885B98091C00087FD35
:10E7A00003C0C114D104A9F2A6014F5F5F4FC25E3E
:10E7B000DE4F59834883CE51D140C25EDE4F8881FF
:10E7C0009981CE51D140019711F00D9410FEC05D9A
:10E7D000DE4F19821882C053D14060E0C15DDE4F28
:10E7E0001882CF52D14088249924C35DDE4F19820C
:10E7F0001882CD52D140C05EDE4F188219821A8233
:10E800001B82C052D140CE5CDE4F188219821A8220
:10E810001B82C253D140EE24FF2487010BBFF701B6
:10E8200007911691C45CDE4F19830883CC53D14005
:10E830000D940BFEC25EDE4F28813981CE51D1404E
:10E840002130310509F52091C600C25EDE4F1982E4
:10E850001882CE51D14022C02F5F3F4F4F4F5F4FA4
:10E86000213082E138078AE7480780E0580780F0C6
:10E87000C45CDE4FE881F981CC53D140EF5FFF4F9C
:10E8800019F0EE27FF27099420E030E040E050E047
:10E890008091C00087FFE0CF2091C600C35DDE4FAE
:10E8A00048815981CD52D1404F5F5F4FC35DDE4FEC
:10E8B00059834883CD52D140213209F063C64A3092
:10E8C000510508F05FC60894811C911C53E0851621
:10E8D000910409F059C600E010E018C081E280936D
:10E8E000C6008091C00086FFFCCF8091C00080648C
:10E8F0008093C0002F5F3F4F2931310579F70F9486
:10E90000DCF10F5F1F4F0530110519F020E030E0FA
:10E91000E5CF10920A0210920B0210920C02109294
:10E920000D02109206021092070210920802109235
:10E930000902109202021092030210920402109235
:10E9400005028FEE90EE60E00F94F5F180E191EE1C
:10E9500060E00F94C2F18091C00087FFFCCF9091DE
:10E96000C600903608F09F759032B8F09093C600BC
:10E970008091C00086FFFCCF8091C00080648093AE
:10E98000C000A0E2A093C6008091C00086FFFCCF2B
:10E990008091C00080648093C000983409F4D7C18E
:10E9A0009934B8F4923409F459C1933458F490333B
:10E9B00019F1903308F4E3C59F33A1F1903409F0C5
:10E9C000DEC5BDC0953409F470C1963409F0D7C5D1
:10E9D00098C1923509F42BC2933538F49C3409F46C
:10E9E000F5C1913509F0CBC518C2963509F445C279
:10E9F000993509F0C4C567C483E792EE62E00F94CD
:10EA0000F5F110920602109207021092080210927D
:10EA1000090210920A0210920B0210920C0210923C
:10EA20000D0213C18FE792EE62E00F94F5F18FEEC5
:10EA300090EE60E00F94F5F181E291EE60E00F94CA
:10EA4000C2F187EB91EE60E00F94F5F180E391EE77
